:020000040020DA
:10300000002F1000A5332000BB332000BD3320006B
:1030100000000000000000000000000000000000B0
:10302000000000000000000000000000053C20003F
:103030000000000000000000B13B20001D3C20000B
:103040006D3C200000000000C5332000000000009F
:10305000000000000000000011392000E1362000CF
:10306000000000005D3B2000C93B2000A939200082
:10307000C53A2000C5332000C5332000C5332000E9
:10308000C5332000C5332000C5332000C5332000E0
:10309000C5332000C5332000C5332000C5332000D0
:1030A000C5332000C53320000000000000000000F0
:1030B0000000000000000000000000000000000010
:1030C00000F002F800F030F80CA030C808382418DE
:1030D0002D18A246671EAB4654465D46AC4201D150
:1030E00000F022F87E460F3E0FCCB6460126334252
:1030F00000D0FB1AA246AB463343184718530000D2
:10310000385300000023002400250026103A01D384
:1031100078C1FBD8520700D330C100D50B6070478F
:103120001FB51FBD10B510BD00F08BFA1146FFF79B
:10313000F7FF00F0DBFD00F0A3FA03B4FFF7F2FFA6
:1031400003BC00F0A9FA000000B5FEB40022002381
:10315000012172B601F6B4FF62B6BFF36F8FFEBCF9
:1031600000BD00B5FEB400220023022172B601F6B4
:10317000A7FF62B6BFF36F8FFEBC00BD00B5FEB403
:1031800002000B00032172B601F69AFF62B6BFF38C
:103190006F8FFEBC00BD00B5FEB402000B00042121
:1031A00072B601F68DFF62B6BFF36F8FFEBC00BD35
:1031B00000B5FEB402000B00052172B601F680FFD7
:1031C00062B6BFF36F8FFEBC00BD00B5FEB4020057
:1031D0000B00062172B601F673FF62B6BFF36F8F64
:1031E000FEBC00BD00B5FEB402000B00072172B6A4
:1031F00001F666FF62B6BFF36F8FFEBC00BD00B57F
:10320000FEB402000B00082172B601F659FF62B647
:10321000BFF36F8FFEBC00BD00B5FEB402000B0013
:10322000092172B601F64CFF62B6BFF36F8FFEBC88
:1032300000BD00B5FEB402000B000A2172B601F613
:103240003FFF62B6BFF36F8FFEBC00BD00B5FEB49A
:1032500002000B000B2172B601F632FF62B6BFF31B
:103260006F8FFEBC00BD00B5FEB402000B000C2148
:1032700072B601F625FF62B6BFF36F8FFEBC00BDCC
:1032800000B5FEB402000B000D2172B601F618FF66
:1032900062B6BFF36F8FFEBC00BD00B5FEB4020086
:1032A0000B000E2172B601F60BFF62B6BFF36F8FF3
:1032B000FEBC00BD00B5FEB4002203000F2172B6B3
:1032C00001F6FEFE62B6BFF36F8FFEBC00BD00B517
:1032D000FEB400220300122172B601F6F1FE62B6BE
:1032E000BFF36F8FFEBC00BD00B5FEB4002203002B
:1032F000132172B601F6E4FE62B6BFF36F8FFEBC17
:1033000000BD00B5FEB400220300142172B601F620
:10331000D7FE62B6BFF36F8FFEBC00BD00B5FEB432
:1033200000220300152172B601F6CAFE62B6BFF391
:103330006F8FFEBC00BD000000B5FFB4BFF34F8F20
:1033400072B6102A02D13CC83CC108E0082A02D15A
:103350000CC80CC103E0042A01D102680A60BFF363
:103360004F8F62B6BFF36F8FFFBC00BD70B50546CF
:103370000C46164602E00FCC0FC5103E102EFAD2B6
:10338000082E02D303CC03C5083E042E07D301CC7C
:1033900001C5361F03E021782970641C6D1C761E60
:1033A000F9D270BD72B60B4880F30988022080F311
:1033B00014880948804709480047FEE7FEE7FEE712
:1033C000FEE7FEE7FEE7000005480249054A064B16
:1033D00070470000702D10005D3C2000C1302000BF
:1033E000C0091000481D100070251000F8B5042A0F
:1033F0002CD3830712D00B78491C0370401C521E3B
:1034000083070BD00B78491C0370401C521E8307A6
:1034100004D00B78491C0370401C521E8B079B0F75
:1034200005D0C91ADF002023DE1B08C90AE0FFF718
:103430009DFFF8BD1D4608C9FD401C46B4402C4305
:1034400010C0121F042AF5D2F308C91A521EF0D474
:103450000B78491C0370401C521EEAD40B78491C9F
:103460000370401C012AE4D409780170F8BDD2B27F
:1034700010B513029A1813049A1800F00EF810BD34
:1034800001E004C0091F0429FBD28B0701D502808B
:10349000801CC90700D00270704700290BD0C307F9
:1034A00002D00270401C491E022904D3830702D5B2
:1034B0000280801C891EE3E70022EEE70022DFE79E
:1034C0000378C2781946437812061B0219438378A1
:1034D000C0781B04194311430902090A0006084376
:1034E0007047002203098B422CD3030A8B4211D36D
:1034F00000239C464EE003460B433CD40022430885
:103500008B4231D303098B421CD3030A8B4201D374
:1035100094463FE0C3098B4201D3CB01C01A52410C
:1035200083098B4201D38B01C01A524143098B425C
:1035300001D34B01C01A524103098B4201D30B0145
:10354000C01A5241C3088B4201D3CB00C01A52416A
:1035500083088B4201D38B00C01A524143088B422F
:1035600001D34B00C01A5241411A00D201465241C8
:10357000104670475DE0CA0F00D04942031000D3E7
:103580004042534000229C4603098B422DD3030A3C
:103590008B4212D3FC22890112BA030A8B420CD34C
:1035A000890192118B4208D3890192118B4204D375
:1035B00089013AD0921100E08909C3098B4201D3F5
:1035C000CB01C01A524183098B4201D38B01C01A2F
:1035D000524143098B4201D34B01C01A52410309A6
:1035E0008B4201D30B01C01A5241C3088B4201D355
:1035F000CB00C01A524183088B4201D38B00C01A02
:103600005241D9D243088B4201D34B00C01A5241D8
:10361000411A00D20146634652415B10104601D365
:103620004042002B00D54942704763465B1000D3EF
:10363000404201B50020C046C04602BD70477047F9
:103640007047754600F024F8AE46050069465346BB
:10365000C008C000854618B020B5FFF7B5FE60BCB5
:1036600000274908B6460026C0C5C0C5C0C5C0C5AC
:10367000C0C5C0C5C0C5C0C5403D49008D467047E6
:1036800010B50446C046C0462046FFF756FD10BDA3
:10369000004870476009100001491820ABBEFEE7E2
:1036A00026000200704730B58C180278401C1307C2
:1036B0001B0F01D10378401C120906D10278401C6F
:1036C00003E00578401C0D70491C5B1EF9D101E038
:1036D0000B70491C521EFBD1A142E6D3002030BD25
:1036E000F8B5884F786AC5B2B86AC4B2864EA007EA
:1036F0001CD5386AC00713D0F079002806D0694677
:103700000620FFF7A3FD0020F071B8617F484168F3
:10371000002904D07069204201D020468847F8BDB6
:10372000802001F0FDFC01F00BFCEFE7A80603D5BB
:10373000202001F0F5FCF8BDE80604D5FF2001309B
:1037400001F0EEFCF8BD280719D5707800280DD1DE
:103750006C4840384169090708D44169490705D5D3
:10376000816940221143816101207071402001F084
:10377000D7FCE807C00F7178401E0843E2D1680704
:1037800004D50120800201F0CBFCF8BDA80704D5C8
:103790000120400201F0C4FCF8BDE8075BD05A49A3
:1037A00070781831002811D0564B403BDA6BB08945
:1037B000441CB4810A54B089012803D198690821B6
:1037C00088439861012001F0ABFCF8BDF078002837
:1037D00003D03079002813D024E04A484038C1682B
:1037E000C90609D18169042211438161416902221C
:1037F00011434161B179C163022001F091FCF8BD30
:1038000040484038406900070CD53069C2B2FA60C0
:103810000204120E3A610002000E78617C20B86149
:1038200001203071374A403A07E0D36BB089441C1D
:10383000B4810B547089401C7081F8690028F4D160
:103840007089F1898842DAD3012001F069FC0020F7
:10385000C043F081F8BD200612D57078002805D04D
:1038600000207070102001F05BFCF8BDF07900289A
:1038700016D069460620FFF7E9FC0020F071B86118
:10388000A00611D5B078401CC0B2B0705428ECD15D
:103890000020B861B0707070042001F041FCF8BDE8
:1038A000102001F03DFCF8BD20070AD517484168FB
:1038B000002904D07069204201D020468847F720B3
:1038C000044060070ED50120000301F029FC0F48D9
:1038D0004168002904D07069204201D02046884701
:1038E000FB200440E007DED00120C00201F018FCFC
:1038F000064841680029D6D070692042D3D02046BE
:103900008847F8BD40400140540710006000100097
:10391000F8B500261E48056A406A05401D481E4F3E
:10392000054203D0FA680021284690470024012070
:10393000A04028420FD03878002805D11748A100B0
:103940000818C06C4605760D1548A100425801467E
:10395000403930469047641C042CE8D3114CE806EB
:103960000BD53878002801D1E06986B27A68002149
:1039700030469047064810218161A80204D5606A4C
:1039800080B2BA680021904701488562F8BD000006
:10399000C03F0240E0FFDFFF6C001000000002406B
:1039A000D008100040000240F8B5414E346A706AF9
:1039B0000440052040023F4F3F4D04420CD0A87800
:1039C0003A464100103A89180C225043C01902F0BF
:1039D00065FD05204002B0620520000204420AD0C5
:1039E000A8780C2148433449C019083102F0D6FCAC
:1039F00005200002B0622007410F30482CD0012181
:103A000022460A43B262AA780C235A43D219937A07
:103A1000002B03D05B1E93720162F8BD064600685E
:103A2000C00706D024491046083102F0B7FC002038
:103A30002881B069002805D1600703D580200443A0
:103A4000042084438E2021460140A87802F0E8FB40
:103A5000687802F0B3FBF8BDE107FCD017480068B6
:103A6000C00709D0A8780C2148431349C019083170
:103A700002F094FC00202881A878401CC0B2A870F5
:103A80006978814208D00C2148430D49C019884704
:103A90000A490120086208E0E107401EC90FC0B2D0
:103AA00002F0BEFB687802F089FBB462F8BD00004A
:103AB000C03F0340000910007C00100000000340DC
:103AC0008785000030B587B00020039004900590F2
:103AD000069001901D49086A88624C6A04401025CE
:103AE000204620212840214008430DD001F002F952
:103AF00001F026FA01206946C87402AA03A901A8A8
:103B000002F06CFE07B030BDE0050AD501F0F2F816
:103B100001F016FA0E48C562C16802151143C16072
:103B2000F0E7200603D501F0E5F801F009FA600698
:103B300001D5084880470848C1680029E2D00069DB
:103B40002042DFD020468847DCE70000C07F0240EB
:103B500000400240038C0000B000100010B5114975
:103B6000086A88624C6A0440600603D501F0C2F816
:103B700001F0E6F9200703D501F0BCF801F0E0F907
:103B8000E00604D50848C16820225140C1600748BA
:103B90008168002904D0C068204201D020468847AF
:103BA00010BD0000C0BF00400040024024001000D3
:103BB00004480168491C01600068012800D172B600
:103BC00030BFFDE72000100070B50A4D2C6A686A0E
:103BD0000440600704D508484068002800D08047AA
:103BE0000648044204D006492046084003F0EEF996
:103BF000AC6270BDC07F034088001000030300006A
:103C0000FBFF000004480168491C016000680128AE
:103C100000D172B630BFFDE7200010000D490868E2
:103C2000401C08600868012800D172B60A48426842
:103C3000521C4260012242700022827040BF08681C
:103C4000002806D00868401E08600868002800D1D7
:103C500062B6704720001000640610000249014857
:103C600008607047002D31019800100070B5164DA6
:103C70002C6A686A0440E00703D01448FFF720FC70
:103C80008047A00709D511483830807A012814D020
:103C90000E480F30FFF714FC8047600704D50B482F
:103CA0001E30FFF70DFC8047200704D507482D3054
:103CB000FFF706FC8047AC6270BD04483C30FFF75C
:103CC000FFFB8047E9E70000C0FF0140100710003C
:103CD00030B47446641E2578641CAB4200D21D4685
:103CE000635D5B00E31830BC184700000EB500F0C0
:103CF00021FC00F023FD1748C16B10229143C163E2
:103D0000144940314A6A02231A434A62C16B821441
:103D10009143C163042400250F4E01270022114660
:103D20002046B04700220121204602F085FC0023F6
:103D300000951A46012120460197029502F04CFC9D
:103D4000641CE4B2092CE9D300F0AEFD034908601D
:103D500000F05EF800400240D97F000038011000FA
:103D6000F3B581B00546224F387800281AD13E4677
:103D700020480836306020207071304603F0BAF9D0
:103D80000446200031D101203870B079012802D0DA
:103D9000002804D006E0012003F0D8FC02E0002057
:103DA00003F0D4FC124A6B4610322846029903F005
:103DB00061FF0446200018D10D4E68460088103679
:103DC00030182038817F902902D1C07F002803D08D
:103DD000042000F0D1FC02E0082000F0CDFC684691
:103DE000008830182038807F28802046FEBD0000E3
:103DF0003401100044061000044A80008018C06C92
:103E00004005400D0880002070470000000002407F
:103E100008B52A4900200870294CA06BA06BA06B44
:103E2000A16B0004C00FC903C90F0843F7D10125D6
:103E30002D033FE0A06BA16B0004C00FC903C90FA5
:103E40000843F7D000F0D6F8064600F04BF90746D5
:103E5000E06B2843E063684600F0B0F8002803D028
:103E6000042000F089FC25E0102000F085FC64208F
:103E700000F00EFE68460288124B3146384600F0CC
:103E8000E3F9002802D0042000F076FC384600F068
:103E900041F8002803D0042000F06EFC0AE0E06B3B
:103EA000A843E063A06BA16B0004C00FC903C90F56
:103EB0000843F7D1022000F05FFCBBE7340110009B
:103EC0000040024044021000F8B5034608460027AF
:103ED000FF4300250C4A194602F04AF90B4CE06BEF
:103EE00010263043E0630A48009700230122EF21A7
:103EF000406800F057FDE16BB143E163800700D4F7
:103F00000E252846F8BD00002D422000004002404A
:103F10003401100010B50300FFF7DAFE04160303A6
:103F200003160E4CA06B800305D502F065F900283E
:103F300001D030BFFDE7A06B400305D503F02EF89C
:103F4000002801D030BFFDE705488047002802D097
:103F5000042000F011FC002010BD000000400240D1
:103F60005B83000010B50021820100D50121C2064B
:103F700001D502221143420101D5042211438203DB
:103F800001D508221143C20701D0102211430206B5
:103F900001D520221143820601D54022114380021F
:103FA00001D5802001430448406800F0DDFC012871
:103FB00001D030BFFDE710BD3401100038B5044614
:103FC0000020C04300900A4800230122FD214068E0
:103FD00000F0E8FCC00601D430BFFDE72146002018
:103FE000FFF70AFF002801D102F0B0F838BD000049
:103FF000340110007FB5364CA06B000400D4A06BD8
:10400000A06B000402D4A06BC003F9D50020694660
:10401000C872304E3068407A08733068807A4873CE
:104020003068C07A88733068007B08810A2000F00D
:104030002FFDA06B0004C50FA06BC003C00F400094
:104040000543012D05D0022D0AD0032D0FD030BF1E
:10405000FDE701206946887230684078087020E0EA
:1040600002206946887230688078087019E0032061
:104070006A4690723068C07800903068007910719C
:104080003068407950713068807990713068C179BA
:10409000D171072905D90E4840300168102211431B
:1040A00001600D49684601F0FBFF002801D030BFD8
:1040B000FDE70121094B0A4A8902002002F01AF8A3
:1040C000002801D030BFFDE7284604B070BD0000D5
:1040D0000040024060812000653F20001142200026
:1040E00044021000FEB500266A4696723F480168F9
:1040F000497851720168097811720068C078D072ED
:104100003B4CA06B8003C50FA06B4003C00F400069
:104110000543A06B0003C00F800005432B00FFF791
:10412000D7FD07620505053F4A526200A06B800378
:104130001CD530480068FFF7C3F901462E48FFF749
:10414000D0F91B38C7B205239A1F0621022002F0BE
:10415000D7F8002801D030BFFDE70022274B1146D9
:1041600038469847002801D030BFFDE7A06B4003D8
:1041700039D50020C04302F071FF002801D030BFC4
:10418000FDE7012000901E480196016800204B7851
:104190000A78012102F0C8FE002824D030BFFDE7D4
:1041A000184900208847002801D030BFFDE764206F
:1041B00000F06EFC17E00121002001F04FFF002805
:1041C00011D030BFFDE710480078002806D102A8C2
:1041D00003F058F9002801D030BFFDE70B4C00F088
:1041E000F1FEA042FBD12846FEBD00005081200018
:1041F000004002405881200080D19D013B85000095
:104200005C812000657C00003401100090C000003B
:1042100010B505481021406800F0A6FB012801D028
:1042200030BFFDE710BD00003401100010B5054897
:104230000221406800F098FB012801D030BFFDE763
:1042400010BD000034011000F0B5E5B0064615467B
:104250001C46FF21053124A8FFF730F9802104A86E
:10426000FFF72CF93046012700263D497F02030065
:10427000FFF72EFD07050B17223A50626E0021460C
:104280002846FFF721FE04465FE00868221D0079FA
:10429000294602F0EFF80446822C56D13148804777
:1042A00053E000231A4619461846029600950194D9
:1042B00002F0F6FE044648E00868221D007929460F
:1042C00002F0D8F8822801D126488047264800F01D
:1042D000DFFB00231A461946184602960095019402
:1042E00002F0DEFE044630E04122214624A800F020
:1042F000B3FB24A9042530A81C4A007C90472780E2
:1043000060801A48B238804721462846FFF7DCFD16
:1043100004461AE02A46214604A800F09DFB1448F2
:10432000042504A901F0B8FE2780608021462846B4
:10433000FFF7CAFD044608E029462046FFF710FDB6
:1043400021460220FFF7C0FD0446002C05D101E004
:1043500030BFFDE7082000F00FFA204665B0F0BD41
:10436000588120006985000020A107003F7D0000E2
:10437000EE04000008B50020009069460120FEF719
:104380004BFF06490098884207D00549884204D06F
:104390000449884201D030BFFDE708BD1000050286
:1043A000100004021000060208B50A496846884752
:1043B0000099002902D00020012303E0012008BD5C
:1043C000401CC0B21A4682400A42F9D0401CC0B21A
:1043D00008BD00000B88000010B500F005F80028AB
:1043E00001D000F085F810BD38B5002000F05CFB6E
:1043F000334D2868C07800902868417900790B0215
:104400000343286882784178007802F063FC044610
:10441000002C52D12B480068FFF752F802462A4878
:1044200001682A48006802F061FA0446002C44D171
:10443000274B1868C2784178007809020143186850
:10444000807800F0A9FB0446002C36D1214822498F
:104450000068007888470446002C2ED11F48016868
:1044600008460C3002F0F4F91D481E490068007837
:1044700088470446002C20D100F026FB0446002C7F
:104480001BD11948016800684978007801F0E6FD01
:104490000446002C11D11548006800F053FF044673
:1044A000002C0AD12868417902790802104380045F
:1044B000800CFF38913800F0EBFA204638BD000040
:1044C0004C8120003C812000408120003881200068
:1044D00034812000308120001D8E00005481200096
:1044E00044812000657C000048812000508120002C
:1044F000012002F0AFFC0B4880470B4880470B4877
:10450000804700F0A7FD0A480021C163084A122134
:10451000803211610121C905C16300F023FB30BF66
:10452000FDE700009B8E00009B9000008D7C00004A
:104530000040024010B500F08FF8074900200860E5
:1045400000F00CF8002801D030BFFDE700F0D8F9EA
:10455000FFF742FF10BD000020001000F8B5324CFC
:104560002068401C20602068012800D172B600201D
:104570002E49C04308602E4908602E4DE868A915F1
:104580008843E860FFF710FF162805D0A86A2A4E76
:104590002A4FC00704D027E000F0C6F87F20F8BDFE
:1045A000274828490068007888472748042201687E
:1045B000264B243128469847224828308047E8680F
:1045C000800501D5224880473E602068002808D039
:1045D0002068401E20602068002802D162B600E0FA
:1045E00030BFA86AC007FBD03E602068002806D014
:1045F0002068401E20602068002800D162B615495E
:10460000086842780378100218431C2801D030BF94
:10461000FDE708688078002801D030BFFDE7FFF78C
:10462000A9FE0020F8BD00002000100080E200E09C
:1046300080E100E0004002400002000000E100E0F4
:1046400044812000657C000028812000817D0000DD
:104650005B8B00002C812000F8B5314B186A0321D8
:10466000890508431862186A0A02104318622D4827
:10467000C02285681543046894438034A600B608B8
:1046800044053619B6468D43260AAD19AD00AD086E
:104690002E190096C6680D12AE43270CF6198E43EC
:1046A000270AF619B600B6083619B44606699643C5
:1046B0008036AE43270CF6198E43270AF619B6004A
:1046C000B60836190661466996438036AE43270C14
:1046D000F6198E43270AF619B600B6083419446154
:1046E000846994438034AC433E12A41984617646B5
:1046F0008E437C103619066046688E433119890056
:104700008908040509194160009E2114AE437118FF
:104710008160664696434036C6600020D861F8BD89
:1047200000ED00E000E400E003481021C162C16830
:1047300002151143C16070470040024010B50B489C
:10474000002101600A49416000220121094C092031
:10475000A047002201210C20A047002201210A20AD
:10476000A047002201210B20A04710BDA800100087
:1047700064812000D97F0000164A00215160164A4A
:104780001649830703D5CB6B1343CB6302E0CB6B96
:104790009343CB63124B420703D5CA6B1A43CA63D8
:1047A00002E0CA6B9A43CA630E4B020703D5CA6B79
:1047B0001A43CA6302E0CA6B9A43CA63C2060A4834
:1047C00003D5CA6B0243CA637047CA6B8243CA638C
:1047D00070470000A80010000000100000400240D8
:1047E000000080000000400000002000FEB50646EA
:1047F0000C4600252078002700282CD0207A694616
:104800004871607A8871E079087160790870A079E0
:104810004870607900282BD06846877020796946F7
:10482000C8707D20C00000F033F90021042001F0A1
:104830000BFA684600F002FE05461848876128001A
:1048400003D01748854217D100256846007860716B
:1048500068464078A0711348E17841706179002979
:104860000ED0A179002911D00221B17101700FE0A1
:10487000012069468870D1E700F062FB2846FEBD42
:104880000121B171017003F06DF801E0B77107709B
:104890007D20C00000F0FCF82846FEBD40400140ED
:1048A00096C000003400100010B5134A1068401C78
:1048B00010601068012800D172B600200F498300F3
:1048C000CB58002B04DB0123DB0784000B5102E0F3
:1048D000401C0F28F3D30F280CD08000401811681B
:1048E000002906D01168491E11601168002900D105
:1048F00062B610BD0020F2E7200010006C06100028
:1049000010B53C220021094800F0B2F807486022A7
:1049100000213C3000F0ACF8044800210838416028
:10492000017041708170012010BD00006C06100004
:1049300010B503460B4A1068401C1060106801282F
:1049400000D172B6186804468C431C6011680029B7
:1049500006D01168491E11601168002900D162B6A5
:1049600010BD0000200010000D4B1A68521C1A6088
:104970001A68012A00D172B640BF02680A43026079
:1049800001D0012000E000201968002906D0196834
:10499000491E19601968002900D162B670470000ED
:1049A00020001000FFB581B00A980C461D4606464F
:1049B000184900274F708F70002D04D001990A68A4
:1049C000214691430CD0002D03D101990968214261
:1049D00006D1002E04D0411C0DD0002803D006E0E3
:1049E0000D4807610BE00B494978012905D00949B9
:1049F0004F7000F013F820BFDEE707480761019809
:104A000000680399002903D002460199A2430A6075
:104A100005B0F0BD6406100000E000E030B50B4CBE
:104A2000A178002911D119214901884200D80146F5
:104A3000074A00251561074B4B435B1E5361956187
:104A4000072313610122A270401A30BD64061000D2
:104A500000E000E0204E000010B5002804D000293E
:104A600004D0FEF7C3FC10BD30BFFDE730BFFDE74B
:104A700010B50B461146002805D0002905D01A466E
:104A8000FEF7F5FC10BD30BFFDE730BFFDE70000CD
:104A9000044909788840400800E0401E0028FCD105
:104AA00070470000A400100010B5044602F01AFB85
:104AB000012C05D0022C03D002490220086010BD51
:104AC00030BFFDE7A4001000F8B585242248012678
:104AD0000078B602F700214D002804D100F0A4F8B8
:104AE0000446200027D1286A400840002862E86870
:104AF00001210843E8601A486862286A3043286246
:104B0000686A384368620A20FFF7C2FF0120400547
:104B100000F078F80120000500F074F8802000F023
:104B200071F8402000F06EF82868C00203D52868AC
:104B3000400600D50024286AB0432862686AB8435A
:104B40006862002C01D0200A01D02046F8BD8921DE
:104B5000E0B209024018F8BD9C00100000000140BE
:104B60000D1000000848022101700022828082702E
:104B700041700749054848600648016B01229203CD
:104B800091430163002070479C00100001F0FF007A
:104B90000000014000400240F8B51746154D28704E
:104BA0000022AA80AA7002226A70134B1C6B560363
:104BB00034431C63114C236A1026B3432362236AD7
:104BC000082633432362002804D0606810436060E5
:104BD0000020F8BD48000521FEF783FC0005000D0C
:104BE000A880AF706168064A00031140014361600C
:104BF000EEE700009C001000004002400000014071
:104C0000FF0F00FF70B505460024064E06E0142095
:104C1000FFF73EFF641CE4B2642C02D030682842E7
:104C2000F5D070BD0000014010B50448007801289F
:104C300002D000F005F810BD002010BD9C0010004F
:104C400070B500250B4C02E06420FFF721FF2168BE
:104C5000880102D420680002F6D52068000207D43B
:104C6000054D06488078002802D000F009F8054676
:104C7000284670BD00000140818900009C001000A2
:104C800070B5194D68680221084368606868802122
:104C9000884368601420FFF7FBFE6868042188439E
:104CA0006860686820218843686068680821084354
:104CB00068601420FFF7ECFE686810210843686004
:104CC0000A488088C408641E1420FFF7E1FE002C07
:104CD00002D028680002F6D52868000201D500201D
:104CE00070BD034870BD0000000001409C00100032
:104CF0008189000010B50120400300F011FA10BDB9
:104D0000F1B582B000272C482C4C007808250028EB
:104D100002D0A0692843A0610120029901F0FCF8AB
:104D2000002803D0A169A943A161FEBD244E3078BB
:104D30003B2806D03F2804D0A069A843A0618E205C
:104D4000FEBD0020029901F0E7F80028F8D1012506
:104D50001B4846783007000F00900024E0001949F6
:104D6000019040180079304214D00020029901F0DF
:104D7000D3F80028E4D16D1CEDB2124A0199104815
:104D80005358405D3946029A9847032C0AD10C4883
:104D9000465D07E021463846029B009A00F006FA7D
:104DA000032CCDD0641CE4B2042CD7D37F1CFFB2FB
:104DB000082FD2D30020FEBD540710000040014050
:104DC0006C071000F4832000F8B5062460431C4CE7
:104DD000001904797D20C000604386B20F20800155
:104DE0004143184827464F43076017490D78002D67
:104DF00004D0FF21E1316143C91901600168491CF8
:104E00000160012001469940104B89B21960002DC4
:104E100002D01031196001E00C3119600C4F904044
:104E200070437D21C900FEF75CFB0F2189014843D7
:104E30000C303860002D02D04C4320183860F8BD8B
:104E40006A812000740810005407100064071000E5
:104E500078081000FFB585B01D46802000F02EF9BF
:104E600000F0B0F804462D482D4E007800270128A8
:104E700007D02C48844231D1306AC00701D08D243C
:104E80002CE0019500F0C8F801A800F0A5FE264925
:104E90000120087025480780F068E0218843F06011
:104EA000234800F00BF923480780234E234A31782A
:104EB000059890470446200010D101AA079906984A
:104EC00000F026FB04468F2C08D13078002805D04E
:104ED0002A460799069801F065F80446002C0AD086
:104EE000932C08D0822C06D0002D04D00A22002159
:104EF0002846FFF7BDFD0E4800F0E0F80D4807809A
:104F000000F08AF8002C01D0200A02D0204609B017
:104F1000F0BD0321E0B289034018F8E760001000FB
:104F20000040014090C000005507100060071000CD
:104F30007F7E00005C07100054071000177A000005
:104F400010B51148007801281AD000F023F80F4856
:104F50000168491C01600168012900D172B6012174
:104F60000B4A11700168002906D00168491E0160D2
:104F70000068002800D162B63E21052000F064FEE2
:104F800000F04AF8002010BD600010002000100062
:104F90005B0710000948016A490849000162084995
:104FA0004A6BC3141A434A638169402211438161E9
:104FB00000214161816100207047000000400140F4
:104FC0000040024010B5084C2046084909780129E4
:104FD00005D007488047A11C884201D1204610BD5A
:104FE0000148401E10BD000091C00000600010008C
:104FF000F578000010B500200121054A054C03E0BA
:10500000535C5840491CC9B223889942F8D310BD5B
:105010006C0710006007100007490020087007495E
:105020000870074908700749088007490870074950
:105030000880074908807047550710005607100080
:10504000570710005E071000580710006007100097
:105050007E08100010B500F06FFD002801D0124846
:1050600010BD1248C16882159143C160016BD20323
:1050700091430163016B120191430163C168C21442
:105080009143C1600A480168802291430160FFF7A3
:10509000C3FF08490020C871074800F00FF8002836
:1050A000DED100F01DF810BDFFC00000004002403E
:1050B00000E100E054071000FF7E000010B5064A32
:1050C0001368002B05D001461068FFF731FC002063
:1050D00010BD024810BD00006800100021C0000093
:1050E00005480168002904D0006800210160002003
:1050F00070470248704700006800100021C000009F
:1051000010B5FFF7D1FB044908600868002801D0FA
:10511000002010BD014810BD68001000FFC0000055
:1051200010B5084A1368002B07D001461068FFF736
:105130001BFC012804D0044810BD0348DE3810BD14
:10514000002010BD68001000FFC00000F8B5044644
:105150000F461546104E3068002802D0012B02D0B1
:1051600004E00E48F8BD2046FFF7A8FF0023009793
:105170001A4621463068FFF715FC204202D02880ED
:10518000002000E028200028ECD0010AEAD1032109
:10519000C0B289034018F8BD68001000FFC00000CD
:1051A00001490160002070476C071000F8B50C46FB
:1051B0009446194600252E4A112612782D4F0123B8
:1051C000002A2DD0012801D1002C04D0012C08D0B8
:1051D000032C16D044E03E7008680671264806701D
:1051E0003EE0002802D18A7A002A02D0022802D0AA
:1051F00036E00B7134E008688079012830D10B71FA
:105200002EE0002802D0012804D029E03E70086872
:10521000067125E019480078012821D10B711FE0A3
:105220000022012801D1002C02D000280ED017E066
:1052300008680370C87A002802D1087B002803D0D0
:105240001046CA7208730B713E7009E0032C07D137
:1052500008680370C87A002801D0CA720B713E70CA
:10526000032C03D1604600F0ABF905462846F8BD93
:10527000540710007D0810007C0810007108100011
:1052800010B500201E4909884A0606D51D49087038
:105290008320FFF713FF832010BD4A0504D5842027
:1052A000FFF70CFF842010BD8A0504D58520FFF789
:1052B00005FF852010BD0A0504D58620FFF7FEFEF8
:1052C000862010BD104C8A0408D501204003FFF74A
:1052D000F5FEFFF735FEA047972010BD0A0607D55B
:1052E0008020FFF7EBFEFFF72BFEA047872010BDC5
:1052F000C904FCD58820FFF7E1FE882010BD00001E
:105300005C071000590710000B8B000030B500231C
:10531000012204070D68240F6C720C6800092072CA
:105320000868407A002802D0401E02228240887914
:10533000FF2801D0401CC3B29A4201D80120087155
:1053400030BD000070B504460E480025057045606C
:105350000D4E7561F57101203070FFF75DFE3581EE
:10536000FFF7CEFE00280CD1FF2230460632002186
:105370001830FFF77DFBE378A27861782078034C42
:10538000A04770BD6000100054071000997800001D
:10539000F8B504460D4616460027FF212170B07867
:1053A0001022104360704840F178A1704140E170D4
:1053B0000421204600F08AFC00280AD10221284658
:1053C00000F0C4FA002804D120782978884201D05E
:1053D0009220F8BD6878C00604D4174911200870DF
:1053E000F0700CE00121A81C00F0B0FA0028F0D108
:1053F0000127A078A978884201D09220F8BD012128
:10540000E81C00F0A3FA0028F8D1002F0DD1617834
:10541000C90603D5E17810225140E170E178A27805
:105420005140E17004490978A170E178EA7891422D
:10543000E4D09220F8BD00007D081000FEB50546BE
:1054400000260096E8780207120F03092C492D4F19
:1054500009780C099C4201D3112801D2962434E02A
:105460000907090F914201D296242EE0112806D196
:105470002549A8780978884201D1962425E07869E1
:10548000082188437861F868E0210843F8602A46DB
:10549000694601A8FFF77CFF0446200015D1684645
:1054A000AB796A792979807900F05AFB04462000AB
:1054B0000BD11649A8788847A9780120002902D085
:1054C0002E70687001E028706E70002C0CD0962C45
:1054D0000AD0F968E0208143F960002D04D007224A
:1054E00000212846FFF7C4FA002C01D0200A01D081
:1054F0002046FEBD0321E0B289034018FEBD000036
:105500007C08100000400140710810004F7A000034
:10551000F7B50E4615462846FFF7F2FB044621482C
:1055200000218161AF208000FFF7B2FA1E4F002CEE
:1055300008D08F2C33D01D48007800282FD08E2C17
:1055400021D02AE03A881A490098FFF785FA38886E
:1055500030702868437A027AC1791648007800F0E2
:10556000FFFA1049A87940390861134813490078B7
:105570008847E879002801D0822410E0687A002862
:105580000DD093240BE03888002806D03A880849CB
:105590000098FFF761FA38883070FFF7D1FC204699
:1055A000FEBD00004040014060071000540710009D
:1055B0006C0710007D081000710810004F7A000081
:1055C00070B506460C46002507E02146002000F095
:1055D000A3FC00280DD16D1CEDB260798019A842A2
:1055E000F3D86079012805D1FFF704FD002801D028
:1055F0008E2070BD1448154A01780120002904D07E
:105600001288202A05D9207103E01288212A00D9A6
:1056100020712079012801D0002070BD8E20002942
:1056200004D0A17A0029F8D18F2070BDE17A002939
:1056300002D1217B0029F8D020680078FF2801D012
:105640008F2070BD952070BD5407100060071000BA
:10565000F8B50B461146002400222B4E0125377861
:10566000002B0AD0012B26D0022B27D00A7A002A41
:1056700047D04A7A002A41D043E0244E002F05D07B
:105680000246113A032A0ED330703AE0204F062327
:105690005343DB199B78834203D0521CD2B26C2A4D
:1056A000F5D36C2A05D030701A4A10700968087159
:1056B00027E0CD7225E000F02FF822E0002F0BD07C
:1056C0000A689379002B1CD00346103BEF2B01D3C3
:1056D0000D7116E0D07014E00A7A002A03D04D72E2
:1056E000096848700DE00A689379002B09D0431EC1
:1056F000FE2B01D30D7104E0D07002E04D720968F9
:1057000048702046F8BD0000540710007C081000C7
:105710006A8120007D08100070B5214A214D14785F
:105720000207120F0123002C0CD02C78A24201D1C9
:10573000C00600D50B711C4800781138032800D32F
:105740000B7170BD012A04D8C4060FD4CC7A002C8A
:105750000CD0012A00D90B73000602D4887A0028E5
:1057600002D00A68FF2010700B7170BDC4060020C3
:10577000002C05DA0D4E112434700E683471C87295
:1057800008732A70012A05D00A6890710A6853715B
:10579000487170BD0A6893710A6850714B7170BD91
:1057A00054071000710810007C0810007D081000DC
:1057B000F8B5144600271A4E01253278002904D086
:1057C00001290BD0022928D10CE0002A25D000287D
:1057D00023D0A07A002820D125711EE0002A1CD0F9
:1057E00025711AE021688979002916D0217A0029CB
:1057F00013D12146FFF78AFD3078002808D02068B1
:10580000017A042902D8407A052806D9257104E0D6
:105810002068007A092800D925713846F8BD0000B3
:105820005407100070B50025002907D0124B012441
:105830001B78012904D002291CD10EE0907119E0D7
:10584000002B03D00A2803D0147113E0002802D0E3
:105850001168C8710EE014710CE011688E79002E89
:1058600008D0002B03D0002804D0147102E0C00738
:1058700000D08C70284670BD5407100070B50346E8
:1058800000201B071B0F2F4C2F4E257801240029C9
:1058900006D0012915D0517B99423CD9147170BDB5
:1058A000012B04D9002D01D0147170BD1473337015
:1058B000012BFAD111688C71136800215971547150
:1058C00070BD3178994201D9147170BD002D14D08A
:1058D000012B06D00E2B04D014710F2BF5D154716F
:1058E00070BD012B03D0012905D0547111E011685E
:1058F0008C7154710DE0147170BD002B09D054717E
:10590000012B02D00F2B03D003E011688C7100E053
:105910001472537370BD012B06D0002D08D00F2BCD
:105920000DD00E2B0BD00BE011688C71547107E079
:10593000002B05D00F2B00D11472547100E054716C
:10594000537370BD5407100071081000F3B581B097
:105950000C46FF20009000256B480168491C01603F
:105960000068012800D172B6684B694E694F08E0A3
:10597000F26B3988481C3880674842541888401CAC
:10598000188063484030C0690028F1D15E4F386804
:10599000002806D03868401E38603868002800D1DA
:1059A00062B65A480088A0420BD35849001B0880B1
:1059B000FB200023594A01218001FFF7C7FB00901B
:1059C0003BE03868401C38603868012800D172B666
:1059D000534804803868002806D03868401E386074
:1059E0003868002800D162B6FFF7ECFA00906946EB
:1059F00008884C49884211D1306AC0070AD07069C2
:105A0000494900070ED50023444A4848FFF79EFB4A
:105A100000900EE043480830009062E08020FFF7DD
:105A20004DFB5EE0414800233C4A4030FFF78EFBCF
:105A3000009068460088002853D138480078C00795
:105A400025D00120FFF73AFB34480178490603D5F9
:105A50007169090709D50125002101803868401CBA
:105A600038603868012803D003E08320009038E0D4
:105A700072B626480188091B01803868002806D0C4
:105A80003868401E38603868002800D162B6234E5E
:105A90003078C0060DD51020FFF710FB8B2000904A
:105AA00023480078002801D08C200090002030800E
:105AB00017E0FFF7E5FB009069460888002810D141
:105AC0001C4E15483188224641180198FEF7C4FF44
:105AD00030880019308000200090002D01D08320F4
:105AE000009068460088002803D068460088000AB5
:105AF00002D068460088FEBD684600880321C0B217
:105B000089034018FEBD0000200010005E07100051
:105B100000400140600710006C0710005C07100097
:105B20006207100090C00000D0EF0300913E00001B
:105B3000580710007E08100010B5074C2068400878
:105B4000400020606420FEF7A3FF2068C00701D05A
:105B5000002010BD014810BD00400140FFC0000002
:105B6000F8B504468E4694460020184F062141435E
:105B7000C9198978A14203D0401CC0B26C28F5D362
:105B80006C2821D0124EF169062205465543EA19C8
:105B9000D278C908C9005207520F0A43F261795BF3
:105BA000CAB27260090AB1600A490C706246714655
:105BB000FFF70AF90020002805D0010A03D10321CC
:105BC000C0B289034018F8BD2120F4E76A812000A3
:105BD000004001407D08100010B5174911220A70DD
:105BE00016490A700021817104680D2363720468EC
:105BF0000423237204680A23E371114B19700172A4
:105C00004172C171417101710173C172417381723D
:105C100004682023E37003681A71026891710368B5
:105C200001225A7102681170026851700068817017
:105C3000481E0449088010BD7C0810007D08100033
:105C4000710810006207100038B5044600200025D6
:105C5000194A042C14D0052C1AD01848007800904A
:105C600017480368174802682046174CA0470028C9
:105C700005D0010A03D10321C0B28903401838BD01
:105C80009561812111612521516171219161EEE7B9
:105C9000094B403BDC69E408E400641DDC61B82486
:105CA0005C6008249C609561CBB213610904090E05
:105CB000516161219161DAE74040014054071000D1
:105CC000740810007808100009790000F8B507463C
:105CD0000D46002400200090844908708449088003
:105CE0008449088084490880844908708449087080
:105CF0008448016A8907FCD50023834A012180205A
:105D0000FFF724FA0646300008D17F4800780006E5
:105D100004D58020FFF7D2F98726D4E078192038FF
:105D2000C17F7A4801707A48FFF7C8F976490020A8
:105D3000088074484038816940221143816141697B
:105D40000422114341618169802291438161202DA8
:105D50005CD900206B4940392246641CBA5CA4B26D
:105D6000CA63401CC0B22028F6D366484038C168D8
:105D7000490949011231C1607D210023624AC900ED
:105D80006448FFF7E3F90646300072D1FFF778FA6E
:105D9000064630006DD10220FFF790F95A490020E5
:105DA0000880203DADB22FE0564940398869042271
:105DB0001043886100202346641CFB5CA4B2CB63C3
:105DC000401CC0B20C28F6D38869904388617D21BD
:105DD00000234D4AC9004F48FFF7B8F90646002E88
:105DE00002D00120009011E0FFF74AFA0646002E8B
:105DF00002D00120009009E00220FFF75FF942493C
:105E0000002008800C3DADB20C2DCDD800980128A3
:105E100059D03C484038C16849094901C160012D49
:105E200028D90146886904221043886106E020468B
:105E3000641C385CA4B2C8636D1EADB2012DF6D1EE
:105E40008869904388617D2100232F4AC900314829
:105E5000FFF77CF90646300035D1FFF711FA064608
:105E6000300030D10220FFF729F9274900200880AF
:105E70000FE028E0012D0CD122484038816904222E
:105E80001143816141690222114341611F4909782F
:105E9000C1631C481A4940384269520702D50A7842
:105EA000002AF9D0114A01231370826904239A430E
:105EB0008261087801280CD01548FFF7FFF81249D5
:105EC000002008800026002E01D0300A08D030467D
:105ED000F8BD002008704020FFF7F0F88326F2E7B5
:105EE0000321F0B289034018F8BD000057071000E5
:105EF0005E071000600710007E08100058071000B1
:105F000059071000404001405C0710005A0710007C
:105F10007F7E0000C23E000070B50E461D4900287D
:105F200006D001231C4A1D48FFF710F9044606E07D
:105F30001A480123184A2038FFF708F90446002CB4
:105F400001D0282424E0144D2888C10709D0C005B9
:105F500001D50120F0710120FFF7B0F80020288062
:105F600016E0810601D5812412E0410701D589247C
:105F70000EE0C00601D58A240AE0FFF781F9044645
:105F8000832C05D106480078002801D0FEF7D8FF01
:105F9000204670BD102700005C071000F53E000091
:105FA00054071000F7B584B017468020FFF786F835
:105FB000FFF708F804462048002500781F4E012806
:105FC00002D01F48844224D11E48816940221143D7
:105FD00081610097FFF720F86846FFF7FDFD01207B
:105FE0006946887218490870184805801848FFF7F4
:105FF00065F8358017486946174A897A00789047CE
:106000000446002C05D16A4605990498FFF780FAEA
:1060100004460F48FFF752F83580FEF7FDFF002CCD
:1060200001D0200A02D0204607B0F0BD0321E0B223
:1060300089034018F8E70000600010005C071000BA
:1060400090C000000040014055071000600710009C
:106050007F7E0000540710008379000008239A0413
:10606000002803D010681843106002E010689843BD
:10607000106020208301002906D0116801431160BF
:1060800010681843106005E01168814311601068C2
:10609000984310600020704710B5FDF7B0F810BDB0
:1060A000F3B581B00446104DE07A2870002601282F
:1060B00008D06E70AE700D492046884707463800FC
:1060C00007D00EE0A07B0421081A6870207BA8701E
:1060D000F1E7AE600298E860102221460448FEF71E
:1060E000BBFC3846FEBD00006C0010006180000063
:1060F000E00810007CB5114D84006519AD6BED0012
:1061000001D4862011E00E4D2B510401403D63194E
:1061100099812A5100245C609C600A4B1C785D7850
:1061200001940095084C9B78A047002805D0010AEF
:1061300003D18121C0B2090240187CBD0000024099
:10614000D00810006C0010003982000010B5044621
:10615000054920468847002805D10449002223012B
:1061600059184A608A6010BD3F83000090081000F3
:1061700070B500240E4B1B68DB0601D581240CE0B2
:106180000B4B40331B6BDB0601D5832405E0094D27
:106190006A602B786A78084DA847002C01D0200A45
:1061A00001D0204670BD8121E0B20902401870BDC7
:1061B000000002406C001000C181000010B50021F9
:1061C0000A4B00229A701A711A815A701A70DA807A
:1061D000074B02E04C001A53491C8142FAD305498F
:1061E000086804221043086010BD00007C00100005
:1061F000F00810000000034010B5074801680122B4
:10620000D202914301600820FFF7D8FF034880477E
:1062100000F026F8002010BD00E100E0FD84000041
:1062200010B505480068FEF79FFB012801D0034820
:1062300010BD002010BD0000800810000D8200007D
:1062400010B5054C6060FEF72FFB2060002801D0E0
:10625000002010BD014810BD800810000D82000014
:10626000024900200968086070470000800810009B
:1062700008B5084800234168009101228F21006879
:10628000FEF790FB8F21084201D080B208BD024882
:1062900008BD00008008100028820000F8B50746FD
:1062A0000E461648C169C90622D4C06908210005F6
:1062B000000F081AC0B23989814200D2C8B28006E4
:1062C000040E13E0200714D0600714D00425318891
:1062D000386889088900401808492A464031FDF786
:1062E0002BF8601BC4B2308840193080002CE9D1F3
:1062F000F8BD1025EBE70825E9E7000000000340A2
:1063000070B505460E4610461C46FFF799FF00285B
:1063100009D10548C470054A3146284690470820EF
:10632000FFF74CFF002070BD7C0010009D84000032
:10633000F0B58646944616480278002A01D01548E2
:10634000F0BD134A0379D5885478002B06D1202D4F
:1063500001D2082C02D30F48401CF0BD0C22264667
:1063600056430D4AC778B3189F7299806746975174
:106370007246DA808A081A81890701D0521C1A8174
:10638000198989004919C180641C44700020F0BD3E
:106390007C0010008A82000000091000F8B5074652
:1063A0000E461448C16989061FD4C0690005000F54
:1063B0003989814200D2C8B28006040E13E020075A
:1063C00014D0600714D00425318838688908890002
:1063D000411808482A465030FCF7AEFF601BC4B293
:1063E000308840193080002CE9D1F8BD1025EBE74A
:1063F0000825E9E700000340F8B5194D2878002882
:1064000001D01848F8BD012028700026AE70164F44
:1064100016493846884716480068C00701D02E81C3
:106420000FE0AC780AE01049600010390E524118B4
:106430000C206043C019FFF731FF641C6878844268
:10644000F1D30B4801210162FFF712FF4008400021
:10645000002803D003490A390843F8BD0020F8BDDD
:106460007C0010008A82000000091000878500006F
:106470000000034010B5074B1C68640864001C60F2
:10648000054C00236370FFF753FF002801D1FFF78D
:10649000B3FF10BD000003407C00100010B5044B9A
:1064A0000A885B699A4201D2FFF7F8FE10BD00002E
:1064B00000000340F8B504460F461548856AC66AD1
:1064C000144822468168406800F094FA10498039E7
:1064D000C8684007400F042802D1E279002A02D0A0
:1064E000042804D00AE0384600F02EF809E0E079EC
:1064F000012803D1C868C008C000C860384600F051
:106500000BF822463146284600F046FA0020F8BD36
:1065100080400240B000100009490A68002A06D0F5
:106520000A68521E0A600968002900D162B6022278
:106530000449CA62896A8901090F01700020704705
:106540002000100000400240F1B5002400261C4845
:10655000406900F067FA1B480168002906D001680D
:10656000491E01600068002800D162B60820164D5F
:10657000E8610220E861154F0420F86203E064340A
:106580006420FEF785FA286A000702D51048844285
:10659000F5D3B86A00998001000F0870296A0907CD
:1065A00001D4002801D00B4E02E00420F86230BF75
:1065B00000F0C8FA0220A8610820A8613046F8BDA2
:1065C000B000100020001000C07F024000400240D8
:1065D0008813000088860000FEB504460D461E465E
:1065E000089B09990A980093019102900E4F334637
:1065F00029462046B847002811D1224601230F32F0
:1066000019469140094A91620D341946084AA14041
:106610001160002D04D0002E02D0064A1160FEBD8C
:10662000044A80321160FEBD3F7F0000C07F0240FF
:1066300080E200E000E100E010B5012808D1002967
:1066400006D00549486A0C229043001D486201E0CB
:10665000024B9847002010BD404002400D7F0000D3
:10666000FEB50D4600260024002700210191564961
:10667000CA685207520F009200220A62CA61534A46
:106680004A61E979002914D04F488269032109043D
:106690008A434F490B789B079B0B1A43826182699F
:1066A000032389789B0489079A43090B0A43826173
:1066B0007CE0697B002901D001246405E97A002986
:1066C00002D0012189020C43A97A002902D00121BC
:1066D00049020C43697A002902D0FF2101310C43A1
:1066E000297A002901D040210C43A979002923D01F
:1066F00004210C4334498278C031002A08D0009A22
:10670000042A05D0012292051443324A0A6304E0A8
:106710000A6B01239B041A430A6301782F2209079D
:106720004078090E120289180007000F014326481D
:106730004161FA20FEF7ACF96879002808D0012001
:10674000044328880A2148431B21FCF7CAFE019014
:10675000287B00280AD01C48816AC90706D0406AF5
:106760000005000D00280DD020200443A878002843
:106770000FD01549886AC0070BD00127009801285F
:1067800002D005E0862611E028794006C00D0743B7
:10679000CF61204638430FD00B480462016A0E4A8D
:1067A0001140019A9205D20A11430162002E01D0D4
:1067B000300A03D03046FEBD8626F7E74321F0B20B
:1067C00049024018FEBD0000004002403240000077
:1067D000B000100029136300FF07E0FFF7B51A4E61
:1067E0003168491C31603168012900D172B600243A
:1067F000164D296902278907002903DA012429692E
:10680000B94329610199FFF72BFF002803D10299B1
:106810000198FFF74FFE002C02D029693943296106
:106820003168002906D03168491E3160316800297D
:1068300000D162B6002805D0010A03D14321C0B2BD
:1068400049024018FEBD00002000100000E000E0FA
:10685000F3B583B000250498465D0398445D6F1C32
:10686000F00718D03246022002401E4B0121384664
:1068700098477F1E720701211B48002A05DAC26B68
:106880000C37B9400A43C26328E0C26B0C37B940E9
:106890008A43C26322E07006800F08D0324640204F
:1068A00002402020314601403846FFF7C5FE002C4B
:1068B00011D06006C00F0290E106A2066007C90F62
:1068C000D20FC30F00920191A007C20FE107C90FB9
:1068D0003846FFF781FE6D1C0C2DBCD3002005B09F
:1068E000F0BD0000D97F00000040024070B5254D8A
:1068F000254C236B5B055B0D1D432563234B002556
:10690000DD601D610E685E6049689960817819706C
:1069100001795970C17899704179D9705A61A1692A
:10692000032212059143A161194A691E9161017800
:1069300000290DD0A16903231B04994303799B0708
:106940009B0B1943A161A16901231B051943A16197
:10695000417800290DD0A169032340799B04800769
:106960009943000B0143A161A06901214905084336
:10697000A0613020D06165620120064900030860F3
:10698000002070BD00D0BB7000400240B00010007D
:10699000C07F024000E100E010B5134A9062D1626E
:1069A000114880388269032109048A430F494B78D2
:1069B0009B079B0B1A43826182690323C9789B045E
:1069C00089079A43090B0A43826100210162C16170
:1069D0001021C162C068800501D5054880470020AC
:1069E00000F0FCF910BD000080400240B000100033
:1069F0005B8B000010B5094B9862D96207481021E3
:106A00008038C1629178002904D0C068800501D522
:106A100003488047012000F0E1F910BD80400240AA
:106A20001B8C0000F0B53F498A6801273A438A6011
:106A3000002874D03C4E00210C243A468A40024281
:106A400005D03A4A8B009A181568F5501460491C15
:106A50000C29F2D3344F30370021344E243E01222A
:106A600012038A40024204D08B009A191568FD5027
:106A70001460491C0429F2D3C3036C222A49002B59
:106A800002DA73690B647261830302D5B3694B64E4
:106A9000B261430302D5F3698B64F261244C0203B3
:106AA00003D5626BCA64234A6263C20203D5626A79
:106AB0000A65214A626282020CD51C4A643A136B51
:106AC0004B65136B0125ED05AB431363136B2D0170
:106AD000AB43136342021CD5184B1A6A8A651A6AC3
:106AE000520852001A620F4A5569CD65144D55611E
:106AF0001568961535431560DD6A6D086D00DD6219
:106B0000D3680B66E023D36013694B66FF239B02B7
:106B10001361000203D5A06A88660F20A0620020DE
:106B2000F0BD000000410040C80010006440024079
:106B300080400240F90700003C04000000000140D2
:106B400038C30100F0B52F484069002858D02D4CBB
:106B5000183400212C4D012632468A40024203D0CF
:106B60008A005319A2581A60491C0C29F4D3254DE8
:106B7000483500210127244C3F03243C3A468A40F3
:106B8000024203D08A001319AA581A60491C04292A
:106B9000F4D31E49C20301D50A6C6261820301D598
:106BA0004A6CA261420301D58A6CE261184C02036F
:106BB00001D5CA6C6263C20201D50A6D62628202AB
:106BC00003D5114B4A6D643B1A63420214D5114A36
:106BD0008B6D1362136A5B085B0013620E4BCD6D05
:106BE0005D610D6EDD604D6E1D611D689715BD43C5
:106BF0001D60D36A3343D362000201D5886EA06260
:106C00000020F0BDB000100064400240C800100039
:106C10008040024000000140004100400A494A6BA8
:106C20000323DB049A43830BDB041A434A63800487
:106C3000800C8C2802D2FF20193070472321490193
:106C40008842FAD9084670470040024070B51E4B92
:106C50001A68521C1A601A68012A00D172B61B4ABF
:106C6000946864086400946094680825AC43946058
:106C700094685503AC439460946810252C43946049
:106C800014020225124E002904D09168214391601C
:106C9000F56103E09168A1439160B5619168E024DA
:106CA0004007A143000E0143916090680121084311
:106CB00090601868002806D01868401E1860186890
:106CC000002800D162B670BD200010000080004096
:106CD000C0BF004070B51D46049B094C2070617018
:106CE000A270E370002807D0002000F077F8284653
:106CF000FFF794FFA08001E00020A080002070BD7D
:106D00002400100010B51C4A1168491C116011685C
:106D1000012900D172B619490B690C15A3430B6107
:106D200017498B685B085B008B608B681024A3435A
:106D30008B608B680C02A3438B608B684C03A3436E
:106D40008B608B68082423438B608B68E0244007AA
:106D5000A343000E03438B608868012318438860B7
:106D60001068002806D01068401E106010680028C7
:106D700000D162B610BD00002000100000400240AB
:106D80000080004013490868401C0860086801281A
:106D900000D172B610488268520852008260826840
:106DA00010239A438260826803029A438260826859
:106DB00008239A438260826843031A43826008680A
:106DC000002806D00868401E08600868002800D126
:106DD00062B67047200010000080004070B5194D69
:106DE000297800292CD0002826D017488168C907A7
:106DF00005D18068000702D4002000F02BF8134C66
:106E00002068401C20602068012800D172B6A88844
:106E1000FDF73EFE00F06AF80D48016902151143C6
:106E20000161206800280BD02068401E2060206887
:106E3000002805D162B603E0E9786878FFF706FF1D
:106E4000002070BD240010000080004020001000D1
:106E50000040024070B50023214D224C002808D18B
:106E60002178002905D0E1786078FFF7EFFE012353
:106E70002AE0012802D1A178012902D0012814D0EA
:106E800016E0A868C0070BD0A868000708D4A86857
:106E9000E0218843A860A86808210843A86013E09F
:106EA0000020FFF72FFF01230EE0A178022902D076
:106EB000012804D008E0FFF765FF012304E0A07873
:106EC000002801D100F012F8002B07D0A088FDF7B0
:106ED000DFFD2868800701D4034870BD002070BD25
:106EE0000080004024001000848700000C48816866
:106EF00008229143816081684203914381608168E7
:106F0000E02291438160816849084900816081687D
:106F1000020291438160034902208861002070478A
:106F200000800040C0BF0040F0B5059F044600202F
:106F3000174D2E68B60702D42D68ED0701D08320C7
:106F40001CE01B0425022B43C9010B43D107490E4A
:106F50000B43510849010B4379000B4306990D4A35
:106F60000B43A10053500121083A1155002C05D0C4
:106F700009494A6B0123DB041A434A63002805D000
:106F8000010A03D18321C0B209024018F0BD0000FC
:106F900000400340900010008040024010B50948B6
:106FA000016B0122520691430163016B92119143DF
:106FB00001630548016852129143016000F026F810
:106FC000002010BD0040024000E100E010B5014685
:106FD00004480068FDF7C8FC012801D0024810BD34
:106FE000002010BD880810000D83000010B5054C6E
:106FF0006060FDF759FC2060002801D0002010BD22
:10700000014810BD880810000D83000002490020CF
:1070100009680860704700008808100008B50C482F
:1070200000234168009101220A490068FDF7BAFC7B
:107030008105890F04D0000A0749084380B208BDC2
:10704000800701D0002008BD0348583808BD000063
:1070500088081000030300008083000010B5FFF7CC
:10706000C5FF002814D10B4A0021134608331154E0
:1070700084001951401CC0B20228F8D30548416071
:107080000548016B0122D204114301630348804784
:1070900010BD00008800100000400240C58E0000B6
:1070A000FEB515461A4608ABC8CB0C460A49095C22
:1070B00000290FD008498000083108580290204666
:1070C000064C294601970096A047002801D1FFF7FA
:1070D000A5FFFEBD0248FEBD88001000BB8F00006A
:1070E0008483000002490148084700000807100097
:1070F0006D900000F0B587B0064600252EA0006810
:1071000006900020049006AF785D01AB321D316817
:10711000FDF7A0FE04461CE0785D059005A901A8D6
:1071200000F0F6F96946785D097D884210D0FDF7D8
:1071300007FF2248FDF7ACFC684601AB321D007D1D
:107140003168FDF787FE04466846007D785500E00B
:1071500000241B488442DFD0002C03D0184811388B
:10716000844214D116481138844201D10120049080
:1071700001A93046FDF73AFB0446200018D1785D9E
:10718000F0710498002813D00D4C113C10E00C480D
:107190001238844203D00A48801E844208D1FDF789
:1071A000CFFE0648FDF774FC6D1CEDB2032DABD38A
:1071B000204607B0F0BD00000001020010270000CB
:1071C00093C000007FB50446FF2000210AA21346A9
:1071D00068CBD268029601950093039262786B4661
:1071E0005C5CA24202D1002004B070BD491CC9B24F
:1071F0001029F5D3F8E700000040206080908191CD
:107200008292E0C1E1C2E2C310B503460020002231
:1072100003E09C5C6040521C92B28A42F9D310BDDC
:1072200008B51C4AD07902280ED0917A1046807891
:10723000022916D001291ED003219172002824D0E2
:10724000922000F001FA08BD0020D07112480078A9
:10725000002801D0114808BD6946C02000F01CFA82
:1072600008BD002803D0912000F0EEF908BD812070
:1072700000F0EAF908BD002803D0902000F0E4F9FE
:1072800008BD802000F0E0F908BD822000F0DCF9A4
:1072900008BD00004C0010003600100082CA00003B
:1072A000F8B50146FF208A780225374C002A05D020
:1072B000FFF7B6FF002800D1A571F8BD6278002A5B
:1072C0000DD0A078002803D0902000F0BDF902E096
:1072D000802000F0B9F90028EFD1A571F8BD2A4A45
:1072E000497816790023294FD279812910D0912924
:1072F0000ED082290CD092290AD0802901D0902961
:10730000ECD1607B002816D0637320481B38F8BD91
:10731000C806C00FB04206D1E371FFF781FF002815
:10732000F5D1A571F8BD022A01D03846F8BDE37148
:1073300016481F38F8BD2078012803D0207B01288B
:107340000FD01BE0C806C00FB04207D0022A01D000
:107350003846F8BDE3710D481F38F8BDE3710020D1
:10736000F8BDC806E178C00F884207D1022A01D0D3
:107370003846F8BDE37105481F38F8BDFFF750FFE8
:107380000028FAD1A571F8BD4C001000A1CA000078
:1073900070B501460020374C0025637A4A78012BEE
:1073A00012D0354BC22A1B7826D0C12A35D0C32A29
:1073B00044D0E32A4CD0E12A4AD0E22A48D0E02A3D
:1073C00016D1002B53D146E0E12A05D1CA78FE2A16
:1073D00002D18A78012A0BD0E079022809D0C12095
:1073E00000F05AF9002803D1E079401CE071022036
:1073F00070BDE571214870BD002B06D0FDF7A0FDE2
:1074000000F096FA1D48001D70BDE22000F044F91E
:10741000257065700121617370BD8878012802D0E4
:10742000FFF7FEFE70BD20786278104302D0FFF7B0
:10743000F7FE70BDE12000F02FF970BD88780128BB
:1074400002D0FFF7EDFE70BDE32000F025F970BD1E
:10745000FFF7E6FE70BDA07B002808D00849202079
:107460000870A57300F07EFA0448C01C70BDFFF7D9
:10747000D7FE70BD4C0010003600100082CA00001C
:107480003500100010B5FDF75DFF044600F06AFA04
:10749000024A01219170204610BD00003400100006
:1074A00070B506463146C12000F0F6F8002822D11A
:1074B0000025144C20E0E079022806D03146C12096
:1074C00000F0EAF8002810D102E0E5710E480CE067
:1074D000E079401CE0710FE0002806D13046FFF74C
:1074E00057FF002801D0022806D0E57165720749D0
:1074F0008D610121217270BD304600F023F8022811
:10750000EAD1D8E74C00100082CA00004040014098
:1075100000B50246002052789206920E1300FCF746
:10752000D7FB080E0508080B0E0B0B0E00220A7085
:1075300000BD01220A7000BD02220A7000BD212098
:1075400000BD0000F8B5054600260020009003218C
:107550002846FEF7FBF90446002C03D02D48844250
:1075600014D10126A878FE2801D901210091401CE0
:1075700087B23946E81CFEF7E9F90446264900209F
:1075800088610098002811D0022440E0214808308A
:10759000844203D121480078002805D0FDF7D0FCB3
:1075A0001D490020886132E0022430E0204630434B
:1075B0000DD01848844201D0002E28D01848417AB6
:1075C000827A114301D10221817202241FE0154900
:1075D00028780978884201D0022418E02846FFF76D
:1075E000F1FD002801D0022411E0E8198278BF1CC7
:1075F000B9B2284600F054FB0446002C07D00848D6
:10760000417A827A114301D10221817202242046FB
:10761000F8BD000083C0000040400140360010006B
:107620004C0010003700100070B504460D46054AA6
:107630000220D17AFEF708FB29462046FEF746FBDA
:1076400070BD00004C00100008B5002100911049E9
:107650006A4609781170507003216846FFF7D4FD1F
:107660006A46D07004216846FFF7DEFF00280DD17E
:1076700069464978812905D0912903D0822901D012
:10768000922903D1034AD179491CD17108BD000068
:10769000380010004C0010007CB527A20CCA0193E2
:1076A00000920524264A6B4612781A7058700125FC
:1076B0009D700023234AE12808D0C12814D0E32874
:1076C00017D0C02821D0E22824D026E0C87801466F
:1076D0001039EF2902D3FFF7A3FD7CBD1A490870CA
:1076E0006946C870D37118E0FE206946C8705572AB
:1076F00013E0C878002805D06D46E870C878D072CD
:10770000D3710AE0FFF78CFD7CBD684683700424CA
:10771000957302E0684683700424601E81B2684657
:10772000FFF772FD694609192039C8772146684676
:10773000FFF77AFF7CBD00000001000000000000A0
:10774000380010004C0010003500100070B50446E1
:10775000084D29788C4203D0022901D0064870BD1B
:1077600006492046884706462C7000F0FBF8304654
:1077700070BD00003400100081CA00004F7A000084
:10778000F8B505460C4616461F461B48FDF708FD92
:1077900019490C39042C0BD0052C0CD023D928798D
:1077A000002820D0421D944208D1022048710AE0EE
:1077B0000020487107E00120487104E0801D8442E8
:1077C0000FD1032048713A463146284600F0E8FBC5
:1077D000002805D0010A03D16521C0B24902401832
:1077E000F8BD2120F4E7072C02D32879002801D026
:1077F0002120EDE78420EBE748001000F7B582B0C8
:107800008CB20026484D0227A879012810D0022802
:107810001ED0032874D00428F6D10498FFF740FD49
:10782000002803D1A8790228EED0002005B0F0BDD1
:1078300021460298FFF7E8FC02990855641CA4B29F
:1078400021460298FFF7F0FE0028EFD1AF71DBE789
:107850000120E8720498FFF775FE002817D002286F
:10786000E4D1A87B00280DD0E879022807D069462A
:10787000C020FFF711FFE979491CE97104E0EE71BE
:107880002A4801E0FFF7CCFC0028BDD0CEE70499E0
:1078900049788A09032A0FD0022A11D02E732A7838
:1078A000012A10D04906AA78C90F914211D0FFF7DA
:1078B000B7FC0028A8D0B9E70320A8712E73A3E76E
:1078C0000420A871A0E7FFF7ABFC0028AED1AF7190
:1078D0009AE7EE71AE72AA78012421469143A9700D
:1078E000049A527892060CD5002903D09020FFF715
:1078F000ABFE02E08020FFF7A7FE6C70AC7295E74C
:107900000BE06978012906D0697B00298ED06E735F
:107910000648001D8AE76E7088E70498FFF738FD77
:10792000002883D1AF716FE74C00100082CA0000BD
:1079300009480122C27000210171817001704170FB
:10794000C1710172C272054B1970054B19704271F9
:1079500082710020704700004C00100037001000BA
:107960003800100010B50C480122C27000210171CE
:10797000817001704170C171017242718271C27275
:107980008173064A1170064A117001734173817246
:107990001030FDF705FC10BD4C0010003700100042
:1079A00038001000FFB583B0FF24002002900025AE
:1079B000019000260027AB4801214171007A002880
:1079C00016D119204001FDF763F80598FFF768FD0F
:1079D000044620000CD007B0F0BDA348049A0078FC
:1079E000824206D902204871049E002501200870B9
:1079F00029E1CB78012002469A43CA70904308716E
:107A00009A48037808690370002A02D04022427025
:107A100001E000224270934C049A82700499CFB224
:107A2000C01C049A0399FDF717F80498C01C80B293
:107A30000290002001900120A07122690299104655
:107A4000FFF7DCFE0446200009D0894884420AD1B1
:107A50008448C179491CC17105214171F3E0814914
:107A600003204871EFE02046B5E7CB7801200246BD
:107A70009A43CA70904308717B4B1878864232D97A
:107A8000361A7A48047808690470012A26D0202220
:107A900042701A781C46827017460399C01C491917
:107AA000FCF7DAFF0195207829188DB2C01C0290EE
:107AB0006C49012088710846026902991046FFF757
:107AC0009DFE0446200093D06948844209D1654850
:107AD000C179491CC17105214171B4E06022427035
:107AE000D7E7204677E76148037808690370012AE1
:107AF00025D0002242705B4C8670F7B20195039945
:107B000032464919C01CFCF7A7FFF01C80B2029056
:107B10000121A17100202070217322690299104671
:107B2000FFF76CFE044620000CD0514884420FD170
:107B30004C48C179491CC1710521417183E0402243
:107B40004270D8E7474903204871002600257AE0B3
:107B5000204640E745480278086902700A78002A02
:107B600008D0CA78012A02D02022427007E06022A1
:107B7000427004E0CA78012A20D000224270394CB9
:107B80008770019A0399C01C89183A46FCF764FF74
:107B9000F81C02900120A071226902991046FFF79B
:107BA0002DFE0446002C0CD03148844215D12D48BE
:107BB000C179491CC1710521417144E040224270E4
:107BC000DDE728480178002902D0022141713AE01E
:107BD000032141710026002535E02046FBE6487B65
:107BE000002802D0002048730025487801280ED0D4
:107BF0001C4E0598316940198A78C91CFCF72CFF86
:107C0000306906998078401908802046E3E6042010
:107C1000487118E0134C0598216940198A78C91CED
:107C2000FCF71AFF2069817849198DB20221A171F0
:107C300002460299FFF7E2FD0446200000D0CAE6A2
:107C4000084903204871074948790300FCF740F8C8
:107C500006090807060504097CE7DBE7BFE704E738
:107C6000BBE6F0E74C0010003500100038001000B3
:107C7000A1CA000070B5084C2478012C06D0FF255D
:107C80000C1F0335AC4204D3044870BDFFF78AFED5
:107C900070BDFFF775FD70BD3400100021CA0000F3
:107CA00070B51546FF24FFF7AFFAA84200D10024B3
:107CB000204670BDF0B585B00D46174691212C8841
:107CC0003DA20CCA039302923D4E61282AD17279DB
:107CD000032A27D0601C82B20121384600F020F927
:107CE0000146080065D1381940786946087335495E
:107CF0000978002902D131786A4611726946097AF9
:107D000031706946497A71706946897AB1706946FD
:107D1000C97AF17030810022052102A800F03AF9F9
:107D2000014646E06C2806D0727890422FD1308907
:107D300000281CD01EE0641CA2B20121384600F0CD
:107D4000EFF80146080034D17878308131786A46FE
:107D5000117071785170B1789170F178D1701071A3
:107D600000220521684600F015F9014621E0FF20B8
:107D70000130308122463189384600F0D1F8014681
:107D8000080016D1288832898018288011E0FF2346
:107D90009A1A82420DD122460121384600F0C0F8DD
:107DA0000146080005D13089401E30812888401CDA
:107DB0002880084605B0F0BD00C0000000000000AB
:107DC0003C00100036001000F8B5074614461E4669
:107DD0009120174D6A78914202D0531C99420BD1E1
:107DE00022782989521D384600F0D4F8002802D1A3
:107DF000002129813170F8BDFF239B1A8B4203D0EB
:107E0000FE235A408A42F6D122780121521D38467B
:107E100000F0C0F80028EED12989491E89B22981D5
:107E20002278521C22700029E5D13170F8BD000083
:107E30003C001000FFB583B004461F46912034A1DA
:107E40000AC902930191344D344E697903292AD12C
:107E50006B78C02B27D0049B1B78002B23D1622C7E
:107E600009D0632C07D03378002B1CD02309092BB1
:107E700019D1902C17D001201070012211463846DC
:107E800000F04EF8002831D1AC717878E871307884
:107E9000002802D12878694608710022052101A82E
:107EA00000F078F822E02A79002A03D103291DD1B5
:107EB000612C1BD100242C710C980121401C82B232
:107EC000384600F02DF8002810D1049804700C9862
:107ED00069463818407808723078002801D128782F
:107EE00008710022052101A800F054F869460979BB
:107EF000297069464979697069468979A970694626
:107F0000C979E9706946097A298107B0F0BD000096
:107F100000C00000000000003C001000360010000F
:107F200010B58018FDF712FD04460548844203D0C1
:107F300003480830844201D1FDF702F8204610BD05
:107F400083C0000070B505460C4616462246012146
:107F50003046FFF7E5FF002816D1305D2870602815
:107F600013D00B494A79002A0DD14978FF22521AC1
:107F700090420AD0884208D04A1C904205D0FE2286
:107F80005140884201D0002070BD912070BD00009A
:107F90003C00100010B58018FDF798FE10BD0000E1
:107FA000F7B588B000260796069605960024049635
:107FB00001270397052201A80899FCF74DFD6846A3
:107FC000564D007928706846407968706846807917
:107FD000A8706846C079E870AE71EE7168790028C3
:107FE0000ED06846007A288100210320FDF72CFE80
:107FF0000022052101A8FFF7CDFF00286AD10CE07F
:10800000684606722E81EFE7912863D1002804D1DB
:1080100043490978002909D012E06846818B06A8F7
:10802000099AFFF78FFF0028F0D0EDE76946097E37
:10803000902905D16979032902D1002C00D02F7134
:108040006979022905D0032905D16A46127B002AE5
:1080500001D0012400E00024012910D0032903D11C
:108060006946097B00290AD00021002C09D0684606
:10807000017E03AB05AA0898FFF7A6FE09E00121DF
:10808000F3E7002905D0684607A9007E099AFFF7A3
:1080900011FE002801D091281CD1912809D16846F1
:1080A000808B0090684604AA03A9007E099BFFF715
:1080B000C1FE002801D091280CD1912802D0687906
:1080C0000028AAD16846007E0009062804D00928A5
:1080D00002D083200BB0F0BD6846808B0121401C8C
:1080E00082B20998FFF71CFF0028F3D16846007C94
:1080F00000280AD06A46928B0998A97981546A4669
:10810000928B0998E979801841706846808B0A99AA
:10811000801C0880034886610020DBE73C001000DB
:1081200036001000404001400012200040122000A4
:10813000801220008412200088122000901220005B
:10814000941220009C122000A0122000A4122000F3
:10815000AC122000B0122000641420006C14200027
:1081600070142000031109050000A00B0106010096
:10817000D00502060200E8020306040074010406AA
:108180000800BA0005061000B000060720005D00D8
:1081900007074000F80008060C002001090714003A
:1081A000B808110501005C04120502002E02130537
:1081B0000400170114050800BA0015061000B000ED
:1081C000160720005D0017074000BA0018050C00D4
:1081D000200119071400E60A210401007305220496
:1081E0000200B902230404005C0124040800AA0070
:1081F00025041000100126072000800027074000FA
:10820000E80028040C00B00129071400A00B31037A
:108210000100D00532030200E802330304007401B8
:1082200034030800BA00350310005D003603200057
:10823000B00037074000F80038030C009400390301
:108240001400140D410201008A0642020200450397
:1082500043020400A20144020800D10045021000BC
:10826000660046022000100147074000170148023F
:108270000C00A70049021400A00B51010100D00519
:1082800052010200E8025301040074015401080085
:10829000BA00550110005D00560120005D00570333
:1082A0004000F80058010C00940059011400880E99
:1082B00061010100440762010200A203630104009E
:1082C000D10164010800E800650110007400660136
:1082D0002000AE0067054000360168010C00BA00BE
:1082E00069011400000C91050100000692050200CE
:1082F000000393050400800194050800C000950563
:1083000010006000960520008000970740000001E3
:1083100098050C00960099051400000CA1030100BB
:108320000006A20302000003A30304008001A403CB
:108330000800C000A50310006000A60320003C0058
:10834000A70440000001A8030C009800A903140032
:10835000000CB10201000006B20202000003B302E9
:1083600004008001B4020800C000B50210006000E3
:10837000B60220004000B70340000001B8020C0024
:108380009800B9021400000CC10101000006C201EE
:1083900002000003C30104008001C4010800C00002
:1083A000C50110006000C60120004800C70240005F
:1083B0000001C8010C009900C90114000010D1018E
:1083C00001000008D20102000004D30104000002F1
:1083D000D40108000001D50110008000D601200062
:1083E0004000D70140005401D8010C00CC00D90155
:1083F000140000005156200010000000B15720006A
:108400002000000025582000400000007D5820007A
:10841000800000003484200020001000700800005C
:10842000A63620004C84200090081000B8140000EC
:1084300004312000017A04FF2D310101FF01FF0109
:0C844000FF01FF01FF01FF01FF510000E0
:04000005002030C1E6
:00000001FF
