:020000040020DA
:10300000002F1000F1332000073420000934200085
:1030100000000000000000000000000000000000B0
:1030200000000000000000000000000055432000E8
:1030300000000000000000008731200059432000FC
:103040008D43200000000000F94220000000000035
:1030500000000000000000009D412000113420000D
:1030600000000000B1422000113420001134200083
:10307000354220001134200011342000113420008A
:1030800011342000113420001134200011342000AC
:10309000113420001134200011342000113420009C
:1030A0001134200011342000000000000000000056
:1030B0000000000000000000000000000000000010
:1030C00000F002F800F034F80CA030C808382418DA
:1030D0002D18A246671EAB4654465D46AC4201D150
:1030E00000F026F87E460F3E0FCCB646012633424E
:1030F00000D0FB1AA246AB4633431847E84B010009
:10310000084C01000023002400250026103A01D3BA
:1031100078C1FBD8520700D330C100D50B6070478F
:103120001FB50098019900F046FF1FBD10B510BDF6
:1031300000F09BFF1146FFF7F3FF01F066F900F086
:10314000B3FF03B4FFF7F2FF03BC00F0E3FF00009E
:10315000084B19680868203080F30988022080F342
:103160001488BFF36F8F3FBCAE4608BC04BC62B688
:103170001847000040001000EFF3108072B670474F
:1031800080F310887047EFF309800E4B1A682038DF
:103190001060F0C044464D4656465F46F0C008B544
:1031A00072B613F033FD62B60CBC116808681030BB
:1031B000F0C8A046A946B246BB4680F3098820382D
:1031C000F0C818474000100000B5FEB400220023EC
:1031D000012172B601F674FF62B6BFF36F8FFEBCB9
:1031E00000BD00B5FEB400220023022172B601F634
:1031F00067FF62B6BFF36F8FFEBC00BD00B5FEB4C3
:1032000002000B00032172B601F65AFF62B6BFF34B
:103210006F8FFEBC00BD00B5FEB402000B000421A0
:1032200072B601F64DFF62B6BFF36F8FFEBC00BDF4
:1032300000B5FEB402000B00052172B601F640FF96
:1032400062B6BFF36F8FFEBC00BD00B5FEB40200D6
:103250000B00062172B601F633FF62B6BFF36F8F23
:10326000FEBC00BD00B5FEB402000B00072172B623
:1032700001F626FF62B6BFF36F8FFEBC00BD00B53E
:10328000FEB402000B00082172B601F619FF62B607
:10329000BFF36F8FFEBC00BD00B5FEB402000B0093
:1032A000092172B601F60CFF62B6BFF36F8FFEBC48
:1032B00000BD00B5FEB402000B000A2172B601F693
:1032C000FFFE62B6BFF36F8FFEBC00BD00B5FEB45B
:1032D00002000B000B2172B601F6F2FE62B6BFF3DC
:1032E0006F8FFEBC00BD00B5FEB402000B000C21C8
:1032F00072B601F6E5FE62B6BFF36F8FFEBC00BD8D
:1033000000B5FEB402000B000D2172B601F6D8FE26
:1033100062B6BFF36F8FFEBC00BD00B5FEB4020005
:103320000B000E2172B601F6CBFE62B6BFF36F8FB3
:10333000FEBC00BD00B5FEB4002203000F2172B632
:1033400001F6BEFE62B6BFF36F8FFEBC00BD00B5D6
:10335000FEB400220300122172B601F6B1FE62B67D
:10336000BFF36F8FFEBC00BD00B5FEB400220300AA
:10337000132172B601F6A4FE62B6BFF36F8FFEBCD6
:1033800000BD00B5FEB400220300142172B601F6A0
:1033900097FE62B6BFF36F8FFEBC00BD00B5FEB4F2
:1033A00000220300152172B601F68AFE62B6BFF351
:1033B0006F8FFEBC00BD000070B505460C4616467A
:1033C00002E00FCC0FC5103E102EFAD2082E02D309
:1033D00003CC03C5083E042E07D301CC01C5361F1C
:1033E00003E021782970641C6D1C761EF9D270BD33
:1033F00072B60B4880F30988022080F314880948CC
:10340000804709480047FEE7FEE7FEE7FEE7FEE7E4
:10341000FEE7000005480249054A064B70470000D8
:10342000702D10007D432000C1302000600E100080
:10343000E82110007025100070B5064600F09EFDD2
:10344000056830460B30C408E400B44201D80020BF
:1034500070BD68682A46002818D00168A14211D3BF
:103460000B46214608318B4208D3436801194B6053
:1034700003681B1B0B605160046001E041685160F0
:10348000001D70BD024640680028E6D1214628464E
:1034900000F07CFD0028DCD170BD70B50446051F2E
:1034A00000F06CFD0068002C1AD0446801E0204652
:1034B0006468002C01D0AC42F9D301680A18AA4212
:1034C00004D12A6805468918016000E04560286833
:1034D0004119A14205D161686960216840182860DE
:1034E00070BD6C6070BD034610B50B439B070FD1D8
:1034F000042A0DD308C810C9121FA342F8D018BA65
:1035000021BA884201D9012010BD0020C04310BD5E
:10351000002A03D0D30703D0521C07E0002010BDBF
:1035200003780C78401C491C1B1B07D103780C78CE
:10353000401C491C1B1B01D1921EF1D1184610BD25
:1035400030B5441C03E00178401C00290DD08107F0
:10355000F9D10B4BDD0104C8D11A91432940FAD0AF
:10356000001B0A0603D0C01E30BD001B30BD0A047C
:1035700001D0801E30BD0902FCD0401E30BD0000CD
:1035800001010101F8B5042A2CD3830712D00B786E
:10359000491C0370401C521E83070BD00B78491C3A
:1035A0000370401C521E830704D00B78491C037023
:1035B000401C521E8B079B0F05D0C91ADF00202329
:1035C000DE1B08C90AE0FFF7F7FEF8BD1D4608C973
:1035D000FD401C46B4402C4310C0121F042AF5D2F3
:1035E000F308C91A521EF0D40B78491C0370401C12
:1035F000521EEAD40B78491C0370401C012AE4D403
:1036000009780170F8BDD2B210B513029A181304EC
:103610009A1800F00EF810BD01E004C0091F04293B
:10362000FBD28B0701D50280801CC90700D0027035
:10363000704700290BD0C30702D00270401C491EFE
:10364000022904D3830702D50280801C891EE3E788
:103650000022EEE70022DFE70378C27819464378BC
:1036600012061B0219438378C0781B0419431143C7
:103670000902090A000608437047002203098B4229
:103680002CD3030A8B4211D300239C464EE0034601
:103690000B433CD4002243088B4231D303098B42B5
:1036A0001CD3030A8B4201D394463FE0C3098B42EB
:1036B00001D3CB01C01A524183098B4201D38B0144
:1036C000C01A524143098B4201D34B01C01A5241E7
:1036D00003098B4201D30B01C01A5241C3088B422C
:1036E00001D3CB00C01A524183088B4201D38B0017
:1036F000C01A524143088B4201D34B00C01A5241B9
:10370000411A00D201465241104670475DE0CA0F8F
:1037100000D04942031000D34042534000229C464F
:1037200003098B422DD3030A8B4212D3FC22890159
:1037300012BA030A8B420CD3890192118B4208D32F
:10374000890192118B4204D389013AD0921100E091
:103750008909C3098B4201D3CB01C01A52418309A5
:103760008B4201D38B01C01A524143098B4201D3D2
:103770004B01C01A524103098B4201D30B01C01AFD
:103780005241C3088B4201D3CB00C01A5241830877
:103790008B4201D38B00C01A5241D9D243088B42CD
:1037A00001D34B00C01A5241411A00D20146634670
:1037B00052415B10104601D34042002B00D54942D4
:1037C000704763465B1000D3404201B50020C046FD
:1037D000C04602BD70477047704700000246C80FE0
:1037E000C00781434B0030B54B405B009B0D20D0A0
:1037F0001923DB06C91801231B05994220DB03248A
:10380000A40704251346AB400BD3002B04D1EB06D1
:1038100013409B00E34204D40124640700231219DF
:103820005941FF231B0599420BD2C9000143500F98
:1038300009E0CB0204D501430803024305D0054843
:1038400030BDFF21C905084330BD084607210905E1
:10385000884330BD0000C07FF0B50C46871A9C41FC
:103860000D46861A9D4103D2C01BA141D219634166
:103870000D0D1F0DC94EEC1BAE435CD07F057F0DB7
:103880000026002F51D02D05AC46A943DD020123AF
:10389000ED0A1B051D4320231B1B24D41746E740BC
:1038A000381871412F46E740CC199D402818314601
:1038B00061410C0D27D161449A4013D50023401C6F
:1038C000594152000ED14008400001224B005205E0
:1038D000D34207D305204007C14201D5B04900E0DB
:1038E000B0493046F0BD6B00002A00D001229A1882
:1038F0001F23203C1B1B01D5002302E0E5402818B4
:1039000071410C0DD7D0012424050919C407CD0736
:1039100040084908E40F28436144002CD5D0002416
:10392000401C61419A40D0D1CDE76A05520DD9D1F2
:10393000C90FC907D5E79C4D4E00002801D00124CE
:1039400000E0002434195F00002A01D0012600E0C5
:103950000026BE19954FAC420CD8AE420AD8B442EC
:1039600006D001256D05EC42BCD010461946F0BDCD
:103970009942FCD000203946F0BDF0B51FB40C468A
:103980000F46811A9F412546861A9D4106D2012580
:10399000ED076F40401ABC4152187B41210D1E0DAE
:1039A0008D1BAC467D4D8D437ED075056D0D7CD055
:1039B0000D05AE46AC431B031B0B794D52429D4196
:1039C000202366469B1B14D31746F7403818002661
:1039D0000090744160462F460741E41900989D40CD
:1039E0002818664116D4714671189A4025D50123CE
:1039F00020E093182A466A415200002B00D0521C46
:103A00001E23203E9B1B002B61DD3541EE1728183D
:103A10006641E8D5001876415B1C9A4000D3401CF3
:103A20004B05F3181524E34010D3002B52D07146F8
:103A30007118D30FC01802D3491C05B0F0BD012383
:103A4000DB079A42F9D140084000F6E7012252050F
:103A5000B21801D1002853D00123CC0ADB029943CC
:103A6000891E002A08D1020C03D0020C0004103970
:103A700002E00246002020390023550B05D1120236
:103A80000823550B01D152010D23550C01D1120110
:103A90001B1DD50C01D192009B1C150D01D15200AC
:103AA0005B1C2025EE1A01E02CE022E00546F540E3
:103AB00015439840CA1AE10769181305C918002A66
:103AC000BBDA032040070818C10FC9070FE0714691
:103AD0006118B2E7F10740080843711071444A00C9
:103AE0000CD001235B059A42A7D2C90FC907002059
:103AF000A3E74905490D26D1002001E00028F4D1B3
:103B000000219AE7284D6600002801D0012100E03D
:103B1000002171185F00002A01D0012600E0002674
:103B2000BE19224FA94210D8AE420ED8B14208D0D9
:103B300001256D05E94206D01946A802414010460C
:103B40007BE79C4201D0214677E70020394674E7A5
:103B500010B50C465C4005D50124E4076340FFF72F
:103B60000CFF10BDFFF778FE10BD30B40C465C4072
:103B700004D50124E407634030BC6DE630BCFCE6AC
:103B800070B50124E40761400D465D4002D4FFF7A3
:103B900063FE70BD6340FFF7F0FE70BDFF070000DD
:103BA0000000F0FF0000F07F0000E0FF0000F87F61
:103BB0000346CA02400D10B510430A1504D0012473
:103BC000E4072043002A05DB0A4CA21A04D4D040A3
:103BD000FF2A00DD002010BD4A00002B01D001208B
:103BE00000E00020101801225205D042F2D8C81778
:103BF000C04310BD1E0400001F22030C02D10F227F
:103C0000000402D0030E03D004E0002001467047F8
:103C10000002083A030F01D10001121F830F01D1E6
:103C20008000921E002801DB4000521E1205511830
:103C30004205C012411810467047C10FC90700D095
:103C40004042012292071143D6E701218907D3E7B9
:103C5000F0B58B4C0F09254689B0BD437BD01D09BB
:103C60002646AE43FAD00E465E402740F60F3E434E
:103C7000254071D024012142FBD0FF24AD19A404BA
:103C80002D1B039501252D05DB02DB0AC9022B4301
:103C9000C90A29431E010901040F130F050121431D
:103CA0001701880B820391432D098C46A90B1E43F3
:103CB0008A039543B30B9A0396433F09BA0B9403C7
:103CC000A74302962E467E430497B6464E19D7194F
:103CD0000C460196544305977E43371B7646BF1B1F
:103CE0003601B646BE0B361900967646BC04371927
:103CF000009C01D3641C00946400002F01D00126B5
:103D00003443029E049F754366467E4304967600C4
:103D100034196E0034190094029C019E1C196643EC
:103D2000751BAE46069465464519059C05956C4382
:103D3000594375460891691A0191049E0146514301
:103D4000A41B0491611A009C0791E10605D061094A
:103D50000122114302E072E06EE06109089D002734
:103D60002C0A2D066918049D7C412A0A2D06691823
:103D7000019D6241AC0DAD026D185441079A910D41
:103D8000920255196141029A644658435443069B76
:103D9000059A5A43121A131B9A0E9B015B187A411B
:103DA000010B0005C3185141220A200644195A414B
:103DB0009A4200D2491C01204002814203D31523BC
:103DC0000226F64302E014230326F6432020C51AF8
:103DD000A9401746AF40DA400A4320460399D8402D
:103DE0000914731819055118039A3843D207514022
:103DF000AC4009D00122944006D30022401C51411E
:103E0000002C01D1400840001E4A934212D30122E7
:103E100003989206904207DB0520400709181A48CC
:103E20000143C012414004E0032040070818C10FBD
:103E3000C907002009B0F0BD0020F107FAE7051816
:103E40000C464C4111486D42A04115D394181A46B6
:103E50005A410E48644290410ED301204A00400569
:103E6000824209D35A00824206D35940C90F084AF8
:103E7000C90700201143DDE700200649DAE700000A
:103E80000000FF07FE070000FFFFFF7F0000E0FFCC
:103E90000000F07F0000F87F0121C90501234118CF
:103EA00042001B06D3185B0E0AD0C1100722D206AF
:103EB000891840075242D14201D5520089187047F3
:103EC000090208D50146002A03D0C10FC907002006
:103ED000704710467047420202D0002002497047E6
:103EE000072109050143F4E70000F87F0102C2152C
:103EF00004D00123DB071943002A0ADB9E239A1A08
:103F000002D40846D0407047FF2241001206914279
:103F100001D900207047C017C04370471F22030C0F
:103F200002D10F2200041CD0030E01D10002083A76
:103F3000030F01D10001121F830F01D18000921ED7
:103F4000002801DB4000521ED20551180212511800
:103F50001922904004D3491C002801D14908490086
:103F600008467047C10FC90700D04042012292079E
:103F70001143D3E701218907D0E7000000487047CB
:103F8000080E1000704770477047704738B50446F8
:103F90000A4600206946C046C046002805D00246B1
:103FA0002046009900F040F8012038BD10B50120EE
:103FB00000F054F810BDF8B5C046C04605460020D4
:103FC0000C461020C0460646A819A0420DD932461C
:103FD00069460020C046C046070001D100F03EF807
:103FE0000098A04200D00546C419FFF7C7FFF61D90
:103FF00007460560F008C0004619284600F008F89A
:10400000B44204D031463868A21B00F00DF8F8BD68
:1040100000210160416080607047102070470000FF
:1040200000487047000E100010B50346406801E0DC
:1040300003464068002801D08842F9D31868C318A5
:104040008B4206D0CB1CD808C000001D411A521A62
:104050000146081D0A60FFF720FA10BD10B500F0F8
:1040600031F800F029F810BD70477546FFF7D8FF0A
:10407000AE46050069465346C008C000854618B0E4
:1040800020B5FFF7C7F960BC00274908B6460026EF
:10409000C0C5C0C5C0C5C0C5C0C5C0C5C0C5C0C5F8
:1040A000403D49008D46704710B50446C046C046A5
:1040B0002046FFF746F810BD10B5002801D000F0EB
:1040C00029F810BD10B5012805D0002103A000F08B
:1040D00027F8012010BD09A1F8E700005349475215
:1040E000544D454D3A204F7574206F6620686561C8
:1040F00070206D656D6F7279000000003A20486590
:104100006170206D656D6F727920636F727275706A
:104110007465640001491820ABBEFEE7260002006A
:1041200070B505460C460A2000E06D1C00F012F840
:10413000002D06D028780028F7D102E0641C00F09A
:1041400009F8002C02D020780028F7D10A2000F0CE
:1041500001F870BD08B5694608700320ABBE08BD04
:1041600030B58C180278401C13071B0F01D103785F
:10417000401C120906D10278401C03E00578401C5F
:104180000D70491C5B1EF9D101E00B70491C521ED9
:10419000FBD1A142E6D3002030BD0000F8B50026D7
:1041A0001E48056A406A05401D481E4F054203D05F
:1041B000FA6800212846904700240120A0402842A8
:1041C0000FD03878002805D11748A1000818C06C16
:1041D0004605760D1548A100425801464039304643
:1041E0009047641C042CE8D3114CE8060BD53878B2
:1041F000002801D1E06986B27A68002130469047F4
:10420000064810218161A80204D5606A80B2BA68AC
:104210000021904701488562F8BD0000C03F024080
:10422000E0FFDFFFB000100000000240880C10002B
:104230004000024010B586B0002002900390049028
:10424000059000901649086A88624C6A0440102163
:104250002046202208402240104309D00120694610
:10426000C87301AA02A9684607F086F806B010BD17
:10427000E00506D50B48C162C16802151143C16053
:10428000F4E7600601D5084880470848C16800295E
:10429000ECD000692042E9D020468847E6E70000DC
:1042A000C07F024000400240038C0000100110005B
:1042B00010B50E49086A88624C6A0440E00604D5CD
:1042C0000B48C16820225140C160A00704D50120DD
:1042D0000BF09AFA08F032F806488168002904D0F9
:1042E000C068204201D02046884710BDC0BF0040B2
:1042F000004002402C00100010B51148016A114C1A
:10430000216021688162406A21680840206020683D
:10431000002813D00C48C068C00702D008F064FD24
:1043200001E00BF03FFC09480168002906D008486D
:1043300022680068104201D02068884710BD000044
:10434000C07F00404C06100000400040E80510000F
:10435000EC0510007047000010B5FEF70DFF044695
:1043600012F0BAFF002803D001200349000748607B
:104370002046FEF705FF10BD00ED00E002490148B0
:1043800008607047002D3101C000100070B5164D57
:104390002C6A686A0440E00703D01448FFF75CF910
:1043A0008047A00709D511483830807A012814D0F9
:1043B0000E480F30FFF750F98047600704D50B48CF
:1043C0001E30FFF749F98047200704D507482D30F4
:1043D000FFF742F98047AC6270BD04483C30FFF7FC
:1043E0003BF98047E9E70000C0FF01409805100055
:1043F00030B47446641E2578641CAB4200D21D465E
:10440000635D5B00E31830BC184710B501F02CF970
:104410000BF0BEFF01F0ACFC00F0EAFE00F004F887
:1044200012F0C6FB002010BD10B501F079F8054A66
:104430001021D16200F056FE002801D030BFFDE708
:10444000002010BD0040024070B592B004460D46F9
:104450003B4801F0A9FB6946204600F0A5F9A07889
:10446000384E002802D1E078002815D0E07F0028DF
:1044700012D0FF211E220231A06A06F0BCFDFF21EE
:1044800005220331A06A06F0B6FD7068FF2182B2F2
:104490000431A06A06F0AFFD00F000FA002808D051
:1044A00029482A490068884700F030FF842012B06C
:1044B00070BD2946204602F0D5F8C5B2862D08D138
:1044C000FF2111AA0531A06A04F00BFF10A8808813
:1044D0007060284680380300FFF78AFF0E2D2D2DCF
:1044E0002D2D2D2D2D2D2D2D080F0F2D184801F0C0
:1044F0005BFB204600F0C8FB1DE0154801F054FBB3
:1045000015491448486010AA5621204602F09AF82E
:1045100010A81249008808701138C2B2002310494F
:104520000D480BF04DFF0C480BF05AFF09480FF0F7
:10453000B5FD00F0EBFEA06A04F0A6FE2846B6E743
:1045400084782100004002402800100039920000C9
:104550008A782100B0041000E80610002400100042
:10456000B50110000EB56B465872AA201880019252
:10457000197206480022D2436946406801F0FCFDEA
:10458000012801D030BFFDE70EBD000088051000F6
:10459000CEB06C46204600F09FF8002801D030BF16
:1045A000FDE7204600F088F9002804D00A9800F0C2
:1045B0008BF830BFFDE71C4901200BF0F9FE002805
:1045C00001D030BFFDE71948174D0068194B4178FD
:1045D000007809020143164A28689847FF20012104
:1045E0000D300AF059FF0121490213480AF0B8FDC5
:1045F000104E124FBC3600212868B0470022D2432B
:104600004BA9786801F09EFD48A8007DC12803D021
:10461000C228F0D030BFFDE70120208148A8417DAD
:104620002046FFF711FFE6E7D40410004878210088
:104630004D5220001D9100001151200088051000EE
:104640003EB50024029400220C21022012F0F4FB5B
:104650001349486000281DD00294052002ADFF22B6
:104660000090002346320FA10195114812F0EAFD97
:104670000298002810D00294032000900D4BB42221
:104680000DA101950F4812F0DDFD0298002805D01C
:1046900000203EBD30BFFDE730BFFDE730BFFDE786
:1046A00088051000436C69665461736B000000005C
:1046B00091452000E80610004C4C43505F436C6964
:1046C000656E74005D54200010B504F0DDFD002817
:1046D00001D107F03FFC10BD10B50446FF21314A5F
:1046E0002D31204602F028FA002801D07F2010BD8D
:1046F0002C48A0620521FF2029300155012280218C
:10470000204601F0BFFF002801D07F2010BD00220D
:104710008C21204601F0B6FF002801D07F2010BD7B
:1047200000228B21204601F0ADFF002801D07F2020
:1047300010BD00228A21204601F0A4FF002801D0EC
:104740007F2010BD00228921204601F09BFF002818
:1047500001D07F2010BD3F228C21204601F092FF26
:10476000002801D07F2010BD1F228621204601F0A5
:1047700089FF002801D07F2010BD07228A21204612
:1047800001F080FF002801D07F2010BD03225221BC
:10479000204601F077FF03224621204601F072FFF8
:1047A00010BD00005806100010B5842211500A22D6
:1047B00002498C3001F00CFF10BD0000407B21004D
:1047C0001FB5FF240134224600210F4801F00CFFE1
:1047D000224600210D4801F007FF782200210C48F5
:1047E00001F002FF08480A4B01190091783302904A
:1047F0007821019400220394581A05F009FE00283C
:1048000001D030BFFDE71FBDE4011000E40210003D
:104810005806100070B5044600202646A0363074B5
:10482000254660352872A872E872287428762046DA
:104830000A220849583001F0CBFE0749E1660748D3
:1048400000782874064A6267803461623072E262DE
:1048500070BD00004A7B21006C071000240010008E
:10486000A401100010B5842200210A4801F0BCFE0A
:104870000848002181811121C181FF21417202215B
:1048800081721E2101820246034B843284210BF087
:10489000F7FF10BDE80610002400100010B5054811
:1048A00000680078002801D0002010BD07F074F8DF
:1048B00010BD00004078210010B50446A078C00764
:1048C00033D018220021654801F08EFE6348102283
:1048D0000021403001F088FE604814220021183089
:1048E00001F082FE5E4A18215C480EF00BF90028A8
:1048F00001D07F2010BD5948594A142118300EF0BC
:10490000EBFF002801D07F2010BD544A1021104633
:10491000403004F049FA002801D07F2010BD4F48F4
:10492000E0621830E06328302065A078800712D557
:104930004A482C220021503001F056FE4748484A90
:104940002C2150300EF0A4FC002801D07F2010BD97
:10495000424850306063A078800712D03F4814224C
:1049600000212C3001F040FE3C483D4A14212C30FF
:104970000EF0B0FE002801D07F2010BD37482C304B
:10498000A063A0780007800F12D0344820220021B5
:104990007C3001F029FE3148314A20217C300DF075
:1049A00051FC002801D07F2010BD2C487C302063B2
:1049B000A078C00612D52948182200219C3001F0A9
:1049C00013FE2648264A18219C3010F04FFF00287D
:1049D00001D07F2010BD21489C302064A078800643
:1049E0001ED51E480C220021B43001F0FDFD1B48ED
:1049F0001B4A0C21B4300FF0E7FA002801D07F20C9
:104A000010BD1648B430606402460C210C3004F02E
:104A1000A3F8002801D07F2010BD1048C030A0644A
:104A2000E078002812D00D4824220021CC3001F07B
:104A3000DBFD0A480A4A2421CC300FF0A9FD0028EA
:104A400001D07F2010BD0548CC30E064FFF70AFF9D
:104A50002046FFF7DFFE002010BD0000E403100039
:104A600058061000FFB583B007460D461E46094C98
:104A70003946059AA06800F007FF002807D1009684
:104A800001952A463946059BA06800F03BFF07B018
:104A9000F0BD0000D8041000F0B59DB0054602201E
:104AA000179001260127244801460C390860024668
:104AB0000C324A600C328A600C21AB6BAA6A10F08F
:104AC00097FD044620002ED1019606A91A4E04A88F
:104AD0000397009102900C3E18AA1821179BB0680A
:104AE00000F0D8FF044620001DD10C21B3683268C5
:104AF000706804F0ADF80446200014D100260627A3
:104B00000C220EA11AA801F063FD1AAB3A463146F9
:104B10002046FFF7A7FF07210B22234628460096D1
:104B200000F014F80446E86A0DF0D1FC002800D02B
:104B3000044620461DB0F0BDE40410000102030449
:104B40000506BCBCBCBCBCBC00000000FFB58DB001
:104B5000169F04460D46164601220E21A06A06F055
:104B60004AFA6220005D21465831019129462D4DB7
:104B7000009702903246109B686804F005F80646DC
:104B8000002E04D000F0AEFB304611B0F0BD00F0B6
:104B9000B3FB05220E21A06A06F02DFA22A00146E1
:104BA0000EC9C06805AC0EC4089005AA0721686844
:104BB00004F0A5F800BF00BF1FA001460EC9C068E1
:104BC00001AC0EC404900020694608744874272084
:104BD00088741020C87401AA0621686804F08FF850
:104BE00000BF00BF09AA0621686803F0E6FF064679
:104BF000002EC9D114A000F055FB102109A800F027
:104C00002FFB00BF00BF09AA0721686803F0D5FF8A
:104C1000064611A000F046FB102109A800F020FB79
:104C2000B2E70000D804100001020304050608776B
:104C30008F69BCBCBCBCBCBC013B033B063B000059
:104C40000000000000000000200D0A5345542044DD
:104C50006174612041533A00200D0A534554204BA2
:104C600065792041533A000010B505480068007886
:104C7000002804D101221146104606F09FFE10BD07
:104C80004078210070477047F0B5A3B0044600207B
:104C90001D90DB480025058000201C901B95D9A0A5
:104CA00000681A90189500F07DFB0C21D648A36B84
:104CB000A26A10F09DFCA06AD34A029010460095AB
:104CC0000023682101950C3004F028F8054626469B
:104CD00020367079C00775D0CCA000F0E3FA5520DB
:104CE000005D00280BD0CEA000F0DCFA00F00EFB37
:104CF000CE4800F079FBE06A0DF0E9FB76E025464E
:104D00006035E8782746583708281DD018281BD06A
:104D1000202831D0002842D0402854D0C4A000F030
:104D2000C1FAC9A000F0BEFAA978384600F098FA96
:104D300000F0ECFABD4800F057FBE878800652D549
:104D4000A06B0EF0F1FB51E0C1A000F0ABFABEA0E9
:104D500000F0A8FAA978384600F082FA2046FFF75A
:104D60009BFE002805D000F0D1FAB04800F03CFBD3
:104D70003CE000F0F1FAF8E7BAA000F093FAB2A034
:104D800000F090FAA978384600F06AFA00F0BEFA0E
:104D9000A64800F029FBA06B0EF0C6FB26E0B5A0EC
:104DA00000F080FAA8A000F07DFAA978384600F05B
:104DB00057FA00F0ABFA9D4800F016FBE06A0DF0E0
:104DC00086FB13E02BE0AEA000F06CFA9EA000F092
:104DD00069FAA978384600F043FA00F097FA934848
:104DE00000F002FB02E0E06A0DF071FB2146563153
:104DF000E06A22910DF04AFFC5B2FF27F5370AE0BD
:104E0000E06A0DF064FB384611F045FEE06A229935
:104E10000DF03CFFC5B2002DF2D0032DF0D070791B
:104E2000800738D59AA000F03DFA87A000F03AFA42
:104E300020460421BD3000F013FA00F067FA7B48E9
:104E400000F0D2FA974801F0DFFB1BA80190204642
:104E50002746A030C13721900097837D606B1C9A54
:104E60001D990EF04AFBC5B211E0606B0DF053FFC7
:104E7000FF20F53011F00FFE1BA80190219800973C
:104E8000837D606B1C9A1D990EF037FBC5B2002D17
:104E9000EBD0032DE9D070790007800F28D082A0D5
:104EA00000F000FA68A000F0FDF9204608218C30DF
:104EB00000F0D6F900F02AFA5C4800F095FA79483B
:104EC00001F0A2FBFF27F5370CE018A8009019AB02
:104ED00003221AA9206B0DF02DF90546384611F072
:104EE000DAFDEDB2002DF0D0032DEED0022DECD086
:104EF00070792746C006C03700282ADA70A000F073
:104F0000D1F951A000F0CEF92046D53008212090EB
:104F100000F0A6F900F0FAF9444800F065FA2046DE
:104F2000D4301F9000221F99209800920191029086
:104F3000F97C202001431346206C10F0A8FB0546A5
:104F4000FF20F53011F0A7FDE8B20028EAD00328D1
:104F5000E8D07079800651D55EA000F0A3F900F08A
:104F6000D5F9324800F040FA28210EA8FEF772FB6E
:104F700000200B902046E0300BAE1E90A06A04F09B
:104F8000A1F9628B0021A06A06F053F800250DA953
:104F90000EAA009501950CA802950592069104951C
:104FA0000395079001232A462946606C0EF00EFFF8
:104FB000009501950295039504961E98FA7F017855
:104FC0000023606C0EF0E2FE09A90AA801220391F9
:104FD00000960192029008A90B7C0A7D0EA9A06A96
:104FE00004F08EF90546002D03D1FF20F53011F0B5
:104FF00052FDE8B20028C1D00328BFD023B0F0BDD5
:1050000026001000FFFF0000140510000A0A547962
:10501000706520412043617264202D200000000053
:10502000547970652031205461670000A00710009A
:1050300043617264206E6F7420737570706F727448
:105040006564202D200000005549443A20000000EE
:105050004D6966617265436C6173736963202D20CD
:105060000000000049534F31343434332D34412093
:105070002D2000000A5479706520322054616700A9
:10508000506173736976652050656572202D20002C
:105090000A0A5479706520422043617264202D20F1
:1050A00000000000102700000A0A547970652033C0
:1050B000205461672D2046656C6963610000000023
:1050C0000A0A49436F646520536C69212121202D10
:1050D000200000000A0A49436F646520494C5421AE
:1050E000212100001FB50290A120694608800748D1
:1050F000006801900022D24301F03EF8012802D05E
:10510000282004B010BD0020FBE700008805100037
:1051100010B5FF240D34002120460AF0BDF901210D
:1051200020460AF0B9F910BD1FB51324A4015A2670
:10513000274901200BF03CF9002801D030BFFDE7E2
:1051400000F014FD234800F02FFD214D234B224A8F
:105150006421286898472868204D0121BC35A8475C
:1051600021461F4806F0BCFA31461E4806F02CFBCB
:1051700000271D4E1D4CFF433A466946206800F04B
:10518000E1FF69460020085EA1380300FFF730F90F
:105190000B08071E1E1E1C1C1E1E0D161E00EBE714
:1051A0000298C0B200F02EF9E6E70298C32801D0B9
:1051B00030BFFDE700213068A847DDE7C1210020AE
:1051C0002268FFF7CFF9D7E730BFFDE730BFFDE733
:1051D0002800100084782100C55B20001D9100008C
:1051E000854C2000874C2000D40410008805100056
:1051F0000EB500200290FFF7E3FA002210210220F2
:1052000011F01AFE0C490860002810D002A80421F1
:10521000009101900023642208A10B4812F012F8BB
:105220000298002805D0FFF71FFD00200EBD30BFFB
:10523000FDE730BFFDE70000880510005379737467
:10524000656D5461736B00002951200010B503484F
:10525000C12102680020FFF785F910BD8805100004
:10526000F0B500220C4B0D4F1C880D4D0DE0835CFA
:105270001B09FE5C53001B19EE54865C3607360F83
:10528000BE5D5B195E70521CD2B28A42EFD34900F8
:10529000014809190180F0BD26001000547B21004F
:1052A000A0071000F8B5074600250C4E347806E03C
:1052B0000B48795D01556D1CEDB2641CE4B23846B3
:1052C000FEF73EF931884018A042F1D23846FEF789
:1052D00037F9318840183080F8BD000026001000F2
:1052E000A00710000348C16B0122D2051143C1631E
:1052F00070470000004002400348C16B0122520584
:105300001143C163704700000040024070B5104C6B
:10531000E06B0125ED052843E0630E4E304601F0B9
:1053200073F9E16BA943E163304601F06DF9E06B7D
:105330002843E063304601F067F9E06BA843E0637F
:10534000304601F061F9E06B2843E06370BD000076
:105350000040024050C3000070B5104CE06B0125C6
:105360006D052843E0630E4E304601F04DF9E16BC8
:10537000A943E163304601F047F9E06B2843E0635D
:10538000304601F041F9E06BA843E063304601F09C
:105390003BF9E06B2843E06370BD00000040024031
:1053A00050C3000010B50948032181720021C1716A
:1053B000817101224271082202710181C17201735F
:1053C0004173034903F0CAFE10BD000090071000AE
:1053D000D55320007047000010B5C8210148FEF7E2
:1053E00039F910BDA007100010B504462046FEF79D
:1053F000A7F881B2024A204603F0DAFE10BD000091
:10540000D953200010B5134903000968FEF7F0FFD7
:10541000161F0C11141D101B1D1B1D0C0C1D0C0C3C
:105420000C0C1F1D1B1D0C1F00210846FFF708F95F
:1054300010BDFFF705F910BD074A126AD207FAD16D
:10544000FFF7FEF810BD30BFFDE730BFFDE730BF0E
:10545000FDE700008805100040400140F1B5A4B010
:105460000F2740241E4E1F4D11AB10211D48249ABA
:105470000CF090FD24980CF0E9FC00234022194622
:10548000306A00F0EBFB00F09DFB01AB0022012134
:10549000144800940CF0FAFC002807D0C0B28F2802
:1054A000E2D0A96868680CF0C1FCDDE73A460E4915
:1054B0000C480CF009FD012120AA9171C0B283288B
:1054C00008D0852806D007480CF0D0FC24980AF0B4
:1054D00097FFC9E7A96868680CF0A8FCC4E700005A
:1054E000E806100068081000657B210008B5002060
:1054F000009069460120FDF7CFFE064900988842DA
:1055000007D00549884204D00449884201D030BF01
:10551000FDE708BD1000050210000402100006029D
:1055200008B50A49684688470099002902D000203A
:10553000012303E0012008BD401CC0B21A4682408E
:105540000A42F9D0401CC0B208BD00000B88000020
:1055500010B500F005F8002801D000F067F810BD84
:1055600038B5002001F05CF8284D2868C07800901C
:105570002868417900790B020343286882784178D2
:10558000007806F085F90446002C3CD120480068DC
:10559000FEF762F802461F4801681F48006805F0E0
:1055A00073FF0446002C2ED11C4B1868C27841783A
:1055B0000078090201431868807803F021FD044651
:1055C000002C20D116481749006800788847044607
:1055D000002C18D11448016808460C3005F006FF6D
:1055E00003F0A6FC0446002C0DD107F0A5FA0446F2
:1055F000286841790279080210438004800CFF3842
:10560000913801F001F8204638BD000040782100B3
:10561000387821003C78210034782100307821004E
:105620002C7821001D8E000044782100012006F016
:1056300023FA0A4880470A48804706F08BFC09484D
:105640000021C163074A1221803211610121C9057D
:10565000C16303F0BBFC30BFFDE700009B8E000080
:105660009B9000000040024010B500F075F806491C
:105670000020086000F00AF8002801D030BFFDE7E4
:10568000FFF766FF10BD000020001000F8B52A4D9E
:105690002868401C28602868012800D172B60020C4
:1056A0002649C043086026490860264CE068A115D9
:1056B0008843E060FFF734FF162805D0A06A224E29
:1056C000224FC00704D018E000F0AEF87F20F8BDEC
:1056D000E068800501D51E4880473E6028680028A4
:1056E00008D02868401E28602868002802D162B6C9
:1056F00000E030BFA06AC007FBD03E6028680028E9
:1057000006D02868401E28602868002800D162B6AC
:105710001049086842780378100218431C2801D009
:1057200030BFFDE708688078002801D030BFFDE772
:10573000FFF7DCFE0020F8BD2000100080E200E052
:1057400080E100E0004002400002000000E100E0D3
:105750005B8B000028782100F8B5314B186A0321D3
:10576000890508431862186A0A02104318622D4816
:10577000C02285681543046894438034A600B608A7
:1057800044053619B6468D43260AAD19AD00AD085D
:105790002E190096C6680D12AE43270CF6198E43DB
:1057A000270AF619B600B6083619B44606699643B4
:1057B0008036AE43270CF6198E43270AF619B60039
:1057C000B60836190661466996438036AE43270C03
:1057D000F6198E43270AF619B600B6083419446143
:1057E000846994438034AC433E12A41984617646A4
:1057F0008E437C103619066046688E433119890045
:105800008908040509194160009E2114AE437118EE
:105810008160664696434036C6600020D861F8BD78
:1058200000ED00E000E400E003481021C162C1681F
:1058300002151143C16070470040024008B510488E
:10584000C16A890702D5C16AC90717D180684007B4
:10585000400F032801D0042810D10A48006841787D
:1058600000780B02034309D0062000901E22082175
:1058700000200AF0B5FB00200AF094FB08BD0000F0
:10588000004000405C78210070B50446238805483C
:105890001D0AE22D05D1DBB2012B02D1204600F01A
:1058A00067F870BD20E20000FEB58C46089F09999C
:1058B0000488084E250AE22D01D03046FEBDE4B230
:1058C000012C01D03046FEBD01910097614600F0E9
:1058D00079F8FEBD20E2000000B50300FEF788FD68
:1058E00007090B0D07090B050F000C2000BD082050
:1058F00000BD102000BD182000BD202000BD0020EC
:1059000000BD0000FEB58C46089F09990488084E2A
:10591000250AE22D01D03046FEBDE4B2012C01D0B3
:105920003046FEBD01910097614600F0FBF8FEBDD8
:1059300020E2000010B50C4A914212D0828A8A42BD
:1059400001D80A4810BDC9000B460069091D0C4664
:105950004258C1588A4202D30448401D10BD521C0F
:105960000251002010BD0000FFFF000021E20000F6
:10597000F8B505460E4600270097A9891048B142A0
:105980001DD9062A1BD86968B0000A52791E6A68B8
:10599000801C115200240EE06B46224631462846F8
:1059A00000F03CF800280AD1009807842021FDF778
:1059B0004FFE641CE4B2E889A042EDD80020F8BD97
:1059C00021E20000F8B5079F04460D461E46002060
:1059D00000906B462946204600F03AF8002810D186
:1059E000AD006168A81C095A2046FFF7A3FF0028F4
:1059F00007D16068405BFFF76FFF0246964201D215
:105A00000548F8BD00990698FDF7BCFD6068405B4D
:105A100038800020F8BD000004E2000030B500240A
:105A20001C608489094D8C4201D8284630BDC48948
:105A3000944201D8284630BD4C43A11880682222E8
:105A4000514340181860002030BD000021E20000E2
:105A5000F0B500241C6084898C4201D80C48F0BD4C
:105A600000240BE04D432D19222786687D437519CC
:105A70001D602D8C954204D0641CA4B2C589A5423A
:105A8000F0D8C089A04201D10148F0BD0020F0BD8E
:105A900021E20000F8B5044606A861C80027009777
:105AA000182901D01D48F8BD1C491F3921806260AA
:105AB000A060A381E58126610998A082002619E0F3
:105AC00062681749B00011526268801C11520025AB
:105AD0000BE06B462A4631462046FFF79FFF002821
:105AE000E1D1009807846D1CADB2E089A842F0D8DE
:105AF000761CB6B2A089B042E2D80020421E07E070
:105B00002369C1005A502369091D5F50401C80B2AF
:105B1000A18A8142F4D80020F8BD000020E20000F4
:105B2000FFFF0000F8B5079F05460E461C46002003
:105B300000906B4631462846FFF78AFF002805D1C2
:105B40006868B100405AA04201D00748F8BD20461D
:105B5000FFF7C2FE024606990098FDF713FD009874
:105B600007840020F8BD000021E2000010B50B48BA
:105B7000002101600A49416000220121094C0920ED
:105B8000A047002201210C20A047002201210A2069
:105B9000A047002201210B20A04710BD08011000E2
:105BA00084782100D97F000000B505494A689042F9
:105BB00004D000220A60486000F004F800BD000034
:105BC000080110001F4A5168002935D01068401C98
:105BD00010600023062800D313601068085C0028BA
:105BE00001D113600878002807D0174A17498307A6
:105BF00005D5CB6B1343CB6304E030BFFDE7CB6B24
:105C00009343CB63124A430703D5CB6B1343CB6358
:105C100002E0CB6B9343CB630E4B020703D5CA6BF9
:105C20001A43CA6302E0CA6B9A43CA63C2060A48AF
:105C300003D5CA6B0243CA637047CA6B8243CA6307
:105C400070470000080110000000100000400240F2
:105C500000008000000040000000200010B5114648
:105C60001C4600280DD0006800280AD0094A526856
:105C7000920608D00A4601460023074811F0BAFCF4
:105C800003E0064810BD10F0FFFF002C00D020609C
:105C9000002010BD00ED00E0F568210027F00000B5
:105CA00070B505460C4610F0FCFF2860002803D0B4
:105CB00020600020A06070BD004870BD28F000008A
:105CC000F8B5069E0C461D46002815D0016800292F
:105CD00012D0A107CB0F009261070068CA0F2946B6
:105CE00011F026F8002E00D030600949A20708D52F
:105CF000854304D00846F8BD05482630F8BD00208D
:105D0000F8BD284201D00020F8BD0846F8BD0000CB
:105D100001F0000038B51C46002810D001680029A9
:105D20000DD0002100910F4D6968890610D00168DF
:105D30006B460D4811F05EFC012802D00CE00B48C8
:105D400038BD0099002907D001210907696003E0E7
:105D50000068114610F0B3FF002C00D02060002036
:105D600038BD000000ED00E02769210027F00000A9
:105D70000020704770B504460D46002C06D0012067
:105D800011F04EF820602860002070BD004870BD02
:105D900028F0000010B5002806D00068002803D0C5
:105DA00010F038FE002010BD004810BD27F00000A4
:105DB00010B500280BD00068002808D000235A1E18
:105DC000194611F053F8012804D0034810BD0248C9
:105DD000401E10BD002010BD28F0000010B50028A6
:105DE0000BD00068002808D000231A46194611F08D
:105DF00001F9012804D0034810BD0248401E10BD1F
:105E0000002010BD28F0000070B504460D4616466F
:105E1000002C0AD0042E0AD003220021012011F008
:105E20000BF82060022E08D00CE0084870BDA9686D
:105E3000E86810F0EBFF206004E000231A461946E2
:105E400011F0D8F820682860002070BD28F000000C
:105E500010B5002806D00068002803D010F0DAFD45
:105E6000002010BD004810BD27F0000037B582B0FB
:105E7000044600200190002C13D02068002810D088
:105E80000498401C0FD06A460499039800F056F815
:105E900000280AD06A460499039800F04FF805B02C
:105EA00030BD1048FBE7049800900F4D68688006ED
:105EB0000BD001AA0021206811F06AF9019900298C
:105EC00009D001210907696005E00023206819460F
:105ED000009A10F0CBFF012802D002482638DEE7F6
:105EE0000020DCE727F0000000ED00E038B50021DD
:105EF0000091002810D0006800280DD00D4C61687A
:105F000089060BD0694611F019F9009900290AD0C9
:105F100001210907616006E0074838BD00231A46E1
:105F2000194611F067F8012802D00348401C38BD1B
:105F3000002038BD00ED00E027F0000037B5154621
:105F4000002401202860009800280FD0012810D0DC
:105F500027247D212868C9004843FDF78EFB28606F
:105F6000002C01D0200A0AD020463EBD01982860AE
:105F7000EFE77D210198C90048432860E9E70F2138
:105F8000E0B2090340183EBD7CB505460C4601AAA7
:105F90002169E068FFF7D2FF002805D001AA216936
:105FA000E068FFF7CBFF7CBD002D0BD0606900904F
:105FB000A369A2686068019911F0BAFA28602060AC
:105FC00000207CBD00487CBD28F0000008B5002101
:105FD00000910B460A460068052111F0DDFA012800
:105FE00001D0024808BD002008BD000028F00000D4
:105FF000FEB506460C460025029501AA2169E06817
:10600000FFF79CFF002805D001AA2169E068FFF78F
:1060100095FFFEBD0F4C606880060DD0009502AB69
:1060200030680921019A11F0B7FA029900290AD0C3
:1060300001210907616006E0009500233068042112
:10604000019A11F0A9FA012801D00348FEBD0020F1
:10605000FEBD000000ED00E028F000007CB5054624
:1060600000240194114E706880060FD011F02EF9B3
:106070000246009401AB0621286811F08DFA0199BF
:1060800000290CD001210907716008E011F018F90E
:106090000246009400230121286811F07DFA0128AE
:1060A00001D003487CBD00207CBD000000ED00E075
:1060B00028F000001CB5002101910F4C6268920687
:1060C0000DD00091006801AB0022082111F064FAA4
:1060D000019900290AD001210907616006E00091B9
:1060E000002300681A46032111F056FA012801D056
:1060F00002481CBD00201CBD00ED00E028F000009F
:1061000010B510F0CEFD10BD38B50022009201246C
:106110000A4D6A6892060DD00A4601466B46084849
:1061200011F068FAC4B20098002805D001200007D9
:10613000686001E010F0C3FD204638BD00ED00E0CE
:106140002769210038B5002300930A4C63689B0639
:106150000AD06A4611F01CF8C0B20099002902D09A
:1061600001210907616038BD002310F07FFEC0B235
:1061700038BD000000ED00E038B5002300930A4C64
:1061800063689B060BD000236A4610F0A4FFC0B2E0
:106190000099002902D001210907616038BD002360
:1061A00010F028FFC0B238BD00ED00E0F0B5059D4D
:1061B000069C94469E460026C20801D02748F0BDA2
:1061C000218041E0410708D5082D02D2E9B200251F
:1061D00006E00821083DADB202E008216D1EADB217
:1061E000820719D537467346761CDF5D22883F0249
:1061F0007A40B6B2228000270BE02288130404D52F
:10620000520063465A40228001E0520022807F1CE7
:10621000FFB28F4218D2F0E7374673462288761CC9
:10622000DF5DB6B27A40228000270BE02288D307D8
:1062300004D0520863465A40228001E0520822806E
:106240007F1CFFB28F42F1D3002DBBD1C00702D01B
:106250002088C04320800020F0BD000021E3000022
:1062600070B50F480024446044700E4D2868002823
:1062700003D02846FFF78EFD2C600A4D0C352868A8
:10628000002803D02846FFF785FD2C60054D183502
:106290002868002803D02846FFF7DAFD2C6070BD7F
:1062A00090001000BC09100010B50B4605490246CD
:1062B0000968054800F054F8002801D00021416128
:1062C00010BD0000BC09100094001000F8B5204873
:1062D0000025457085601F4E4660344627461E489F
:1062E000143F7860BD600A20F860394604220846F1
:1062F000FFF78AFD002823D13868002821D02146E5
:106300002C390846FFF736FD002819D1183F3868A8
:10631000002818D0214620390846FFF72BFD002819
:106320000ED13868002810D001201C214143891962
:1063300061610C46401CC0B20A28F6D3656100209A
:10634000F8BD0648F8BD0548F8BD0448F8BD000092
:1063500090001000E8091000FA7B21000DE3000016
:106360003FB583B005461C4600210191029204A866
:10637000029AFFF71DFD002802D0002007B030BDB3
:1063800011481249002C08D14278082A05D30A681E
:10639000049B9A4201D10020F0E72C68002C0FD01A
:1063A00062692A600968049A914202D14178491CC5
:1063B000417004A8FFF712FD002803D00020DDE79C
:1063C0000020DBE72046D9E790001000BC09100050
:1063D00000234B610368002B02D0012A02D005E0A4
:1063E000016070474B61016070470346586900289F
:1063F000FBD15961704700001CB504460021009193
:1064000001940848019AFFF731FD002801D00020CF
:106410001CBD044801230C38016822460248FFF7DE
:106420009FFF1CBDD4091000980010007CB50446E5
:106430000846002529466561E176009101900C48E7
:10644000019AFFF7B5FC00280DD10A4948680028D9
:106450000AD060614C604878401E48700448FFF7DD
:10646000BDFC0028FFD17CBD4C60656100207CBD77
:10647000BC0910009000100010B513460A46002118
:1064800000F008F810BD10B513460A46012100F0CF
:1064900001F810BDFEB506460F461C4600200090D0
:1064A00001920120C0031A4D844211D0002C0FD05C
:1064B0002878401C287016483A4631460830FFF7C5
:1064C00087FF0120800384420CD0002C0AD01CE0FE
:1064D000012028700F48019A0099FFF769FC0028F5
:1064E00014D1E8E7002408E00A4800210C30FFF747
:1064F000FDFC00280AD1641CE4B228788442F3D35E
:106500000448FFF76BFC002800D10020FEBD00000E
:1065100090001000C80910007CB504460094502C6F
:1065200003D2204600F070F87CBD1F4D2868401C47
:1065300028602868012800D172B601A9002009F05E
:1065400037FF2968002906D02968491E2960296873
:10655000002900D162B6002803D0204600F054F88C
:106560007CBD2146124B114A5039019898470028AA
:1065700003D0204600F048F812E00D4A0021BC325A
:1065800001989047002803D0204600F03DF807E02E
:10659000084C02E069460198A04700980028F9D10C
:1065A000019809F0FDFE7CBD20001000416620002E
:1065B0001D9100008B92000010B5002804D0002926
:1065C00004D0FCF790FF10BD30BFFDE730BFFDE702
:1065D00010B5002804D0002904D0FCF7D3FF10BD6B
:1065E00030BFFDE730BFFDE710B50B461146002870
:1065F00005D0002905D01A46FDF705F810BD30BFBB
:10660000FDE730BFFDE700000449097888404008F5
:1066100000E0401E0028FCD170470000040110007B
:1066200010B5044609F0B4FE012C05D0022C03D0AD
:1066300002490220086010BD30BFFDE704011000D0
:1066400000BF704770B50446238805481D0A402DD9
:1066500005D1DBB2012B02D1204600F033F970BD29
:106660002040000010B503461A880548140A402C43
:1066700005D1D2B2012A02D1184601F0EFFF10BDB8
:106680002040000070B50446238805481D0A402DAF
:1066900005D1DBB2012B02D1204602F059F870BDC2
:1066A0002040000070B504460022254640352A757A
:1066B000A07F40084000A07700200101091A0919B5
:1066C00060310A718A70401CC0B20028F5D02146A2
:1066D0005631E06A0CF0DAFA0646304601F0AEFDBB
:1066E000002820D0F0B20126032802D1A07F304339
:1066F000A077FF22F5320721A06A04F07CFC204637
:1067000020300179022902D14178022902D0407853
:10671000022805D0E06A0BF0DAFEC1B2122901D0DE
:106720002E75024870BD304670BD000087400000E5
:106730007CB5044600222546A0356A752A75A07FDF
:10674000FD210840A07721462046C131CE3000917E
:106750000190AB7D0021606B0CF0CFFE0646304609
:1067600001F06CFD00280BD03006000E03D0A07F96
:1067700002210843A077287D401C287501487CBD74
:1067800030467CBD8740000038B5044600221146E3
:10679000206B0BF0E0FC002826D16A4657212046EA
:1067A000FFF750FF00281FD12520005D0007800F54
:1067B00002D10021882001556946A07F0A889043B4
:1067C000A0770321204601F009FE0546284601F086
:1067D00035FD002809D0E8B2032804D16946A07F1E
:1067E00009880843A077024838BD284638BD000014
:1067F0008740000070B598B0044628210EA8FCF729
:1068000029FF00250B950A95099508950CA80EAA55
:106810000DA90592079006910AA804950195029585
:1068200003950090002201231146606C0DF0CEFA12
:10683000002824D10BAE019502950395DF20049624
:106840000095025DE020015D0023606C0DF09EFA72
:10685000002814D109A908A80122029100960192EA
:10686000039008A90B7C0A7D0EA9A06A02F048FDDE
:106870000446204601F0E2FC002802D0024818B08D
:1068800070BD2046FBE70000874000003EB5014692
:10689000D5314A1E0023019202910093D321095C55
:1068A00024221143006C1A460EF0F1FE04462046E5
:1068B00001F0C4FC002801D001483EBD20463EBD89
:1068C00087400000F0B500240546034607466035C2
:1068D000A033C03748296FD036DC21296DD018DCB1
:1068E00006296BD006DC0B00FDF782FD0697CBD79F
:1068F000DAFAEF7813296ED006DC10296CD0112952
:106900006BD012296AD1D1E0142968D0202965D131
:1069100086E0803042296FD00EDC25296DD006DC60
:1069200022296BD023296AD0242957D1F0E04029AD
:106930007DD0412952D17DE043390B00FDF758FD50
:106940000588858B9295F7000646203681294AD026
:1069500020DC552971D00EDC52296FD006DC492984
:106960006DD050296CD0512938D1A5E0532968D079
:10697000542933D1ABE0702970D006DC56296ED093
:1069800057296DD0602929D1B3E0712969D08029B8
:1069900024D135E083390B00FDF72AFD0E1417389A
:1069A00028221A0B11082B35C9C9C4C94079108097
:1069B000BEE080791080BBE05AE065E02AE0C07854
:1069C0001080B5E0807F1080B2E0007A1080AFE0E8
:1069D00030781080ACE086E026E058E0A7E094E054
:1069E00070791080A4E0B0781080A1E00079108068
:1069F0009EE0807810809BE024E04BE053E075E05F
:106A0000C07F108094E03079108091E0C08C1080BD
:106A10008EE00CE0808B10808AE0008A108087E096
:106A20004030007D108083E0807A108080E0287FF5
:106A300010807DE0687F10807AE04BE03FE01AE054
:106A40001CE03FE0A87F108072E0007810806FE0CB
:106A5000E87F10806CE0287A108069E05BE03CE021
:106A600027E05BE0687A108062E0A87A10805FE03F
:106A7000E87A10805CE0287C108059E0287E108045
:106A800056E0408A108053E0187D108050E0C07AB4
:106A900010804DE0F87B10804AE0808A108047E04B
:106AA000C08A108044E0007A108041E0007B1080B2
:106AB0003EE0F07810803BE01878108038E058789D
:106AC000108035E09878108032E01BE008E0D8783C
:106AD00010802DE0187A10802AE0187C108027E0C2
:106AE000008B108024E0807B108021E0B87C108037
:106AF0001EE0F87C800702D50D20108018E00C20E5
:106B0000108015E0408B108012E0C07B10800FE0F9
:106B1000B87F10800CE0F87F108009E0E03000784A
:106B2000108005E0FF302130007A108000E0014C39
:106B30002046F0BD21400000F0B50B46FF3B2D3B49
:106B400001D03248F0BD31491F39018082620021F5
:106B5000C162416381630163C16301644164816413
:106B6000C164016502250246203255701571012469
:106B70000481417181711470C17791705171817775
:106B8000234A828384720282C4724282032704737E
:106B90004473920082821F4AC28208260D22C2706C
:106BA00084731B4A64320283C4731B4A42833F22AC
:106BB00082705422115402466032117251729172E5
:106BC000D172167751779177D17703468033197058
:106BD000403211755175167651769176D1761177CE
:106BE00091751972FF265E729E72DF72117051707C
:106BF0009170D17020329174D5749177D777E0225B
:106C00001454FF30213001720020F0BD20400000FC
:106C1000EC130000C43B000010270000F0B593B057
:106C200004460E46002223464033187DB04201D967
:106C3000002E02D07B4813B0F0BD254660350128F8
:106C400030D9287901282DD100200DE00101091A41
:106C5000091960310F79002F04D1B04202D001220E
:106C600001270F71401CC0B2197D8142EED8002A65
:106C700004D0E06A0BF02BFC0028DCD13001801B33
:106C80000119084663300FAB0EAA0093C71E02928B
:106C90000190BA78583110ABE06A0BF0C2FB0028C3
:106CA000C9D13871002E01D05E48C4E7E878602170
:106CB000084040090D90264627460D98203680371B
:106CC00001283FD17078032806D001225E21A06AF6
:106CD00004F091F90028AED13978786800910190DC
:106CE000EB7F6A7F297FE06B0CF072FD0028A2D158
:106CF00008A909AA07A80092019102900AAB0BAA61
:106D00000CA9E06B0CF07BFD002894D17078012871
:106D100005D16846007F082801D9082007906946F8
:106D20000A7F08A90B780979A87F01910293039241
:106D3000009008A90B7A0A7B097CA06B0CF012FC6E
:106D40000028B2D10D98022803D00D9803281FD037
:106D50005DE07078012818D02A7CE36E616F2046D0
:106D600078300293039204910590E87AA97A009111
:106D7000019021466B7A2A7A5831E06C0DF034F993
:106D8000002892D127486C3055E72648643052E7F6
:106D90007078012802D023486D304CE701225E2133
:106DA000A06A04F028F90028EED1397878680091BB
:106DB0000190EB7F6A7F297FE06B0CF009FD0028D2
:106DC000E2D108A909AA07A80092019102900AAB92
:106DD0000BAA0CA9E06B0CF012FD0028D4D1684678
:106DE000007F082801D9082007906F46397F08AF37
:106DF0003A783B79A87F01930292039100903B7A05
:106E00003A7B397CA06B0CF0ADFB0028BCD10D980F
:106E1000002802D17078012801D000200BE701483A
:106E2000643008E721400000F0B58FB004460F46FB
:106E30002546A035287DB84202D837480FB0F0BDAE
:106E4000401EB8420CDD0AA90EA800910190AB7D4E
:106E50006A7D0021606B0CF050FBC1B21229EDD0AD
:106E6000264620367078032806D001225E21A06ACB
:106E700004F0C1F80028E1D113204743381900215C
:106E80008446C030C173C17AC90701D00121C173E2
:106E90007178032902D1C17B002923D02B7FEF7E9B
:106EA000697E22460091D032019702930392827B41
:106EB00061462B7EC131606B0BF0F7FE0028BDD11F
:106EC00005A906AA04A800920191029007AB08AA9E
:106ED00009A9606B0BF006FF0028AFD1707801287C
:106EE00002D007E00020A9E76846007C082801D905
:106EF000082004906E46317C327D337EA87E01935B
:106F0000029203910090337F08AE32783179A06B02
:106F10000CF028FB92E700002140000070B50D4600
:106F2000114600220446203462710A4BAA009B5885
:106F300098470121A940C2B2C9B2002A06D0C2B204
:106F40008E2A01D08D2A00D1617170BD6171024815
:106F500070BD0000BC7B21008B400000F0B593B0F9
:106F600004460026119644A0006810900F960E96D5
:106F700025468035287A884202D2404813B0F0BDB9
:106F8000132041430F1912978C373946206B0BF0B1
:106F9000F1F80028F2D112988030017B012902D14A
:106FA000407BFE2801D00020E8E7287A01283DD068
:106FB00000221146206B0BF0CEF80028DED10DA880
:106FC00000900FAB0F2210A9206B0BF0B3F8002834
:106FD000D4D10CAA0121206B0BF086F80028CDD16A
:106FE00018E00B960A960BA90EAA00920191C1B265
:106FF0000AAB206B0F9A0BF086F80028BED111AABD
:1070000020460E9900F07CF90028B7D16946088E19
:10701000401E0C906846008E002803D010A9097904
:107020000029DED010A80079002821D03946082296
:1070300007A8FCF7A7FA08A8067146712046A030F9
:10704000EA6A037A6D6A2146B0310295039304928D
:107050000591C1788278019100924378027807A95E
:10706000E06C0CF0C1FF002888D104486C3085E743
:107070008120C00182E70000FFFF000021400000E6
:10708000F0B599B004460F4628210FA8FCF7E2FAA4
:1070900000260C960B960A96202009902546C035AE
:1070A000A87FB84202D2264819B0F0BD3C20474321
:1070B000FF2039191D30405AFF2801D9FF2000E078
:1070C000C0B20DAA07920FAF0EAB059709AAE23125
:1070D00006930092029104960196039000220123E8
:1070E0001146606C0CF072FE0028DDD10CAF0196E9
:1070F0000296039604970096E020015DEA7F002344
:10710000606C0CF043FE0028CED10BA90AA8022225
:10711000029100970192039008A90B7D0A7E0FA9A6
:10712000A06A02F0EDF80028BED16946098D0B98DF
:107130004118891EA06C01F0FFFC0028B4D1B3E710
:107140002140000010B50446D220005D884201D8DD
:10715000084810BDC80008180119D5310822206C54
:107160000EF0E5FA0028F4D1206C0EF0A9FA002800
:10717000EFD110BD21400000F0B58BB004460020D7
:107180000A902646203670710025E0780127AF402E
:107190003840012804D0022852D0042844D14FE0BE
:1071A0000AAA5F21A06A02F09CF8002843D1684631
:1071B000008D012806D1A28B3521A06A03F01BFFA8
:1071C000002838D10721A06A02F018F8002832D12F
:1071D000204601F013F800282DD16846008D0028C4
:1071E00006D1A28B3521A06A03F005FF002822D129
:1071F00020466030037CE76E626F2146783102974B
:10720000039304920591C17A827A01910092437AA4
:10721000027A21465831E06C0CF0E6FE0106090EB8
:1072200003D0C0B2022808D050E071790120A840F4
:107230000143717131480BB0F0BD30480838FAE7AE
:10724000A06A02F021F80028F5D1A28B0021A06AE3
:1072500003F0EFFE0028EED1022F3FD00921A06AF3
:1072600001F0CCFF0028E6D1204600F0C7FF00283F
:10727000E1D1A28B3521A06A03F0BDFE0028DAD14E
:107280002046803001460269C068089207900020BD
:1072900008AA107150712046A030CB6A077A496A5B
:1072A0002246B0320397049305920291C178827806
:1072B000019100924378027807A9E06C0CF094FEEB
:1072C0000106090E0FD0C0B2022813D06D1CEDB21A
:1072D000032D00D259E709480838ACE70821A06A15
:1072E00001F08CFFBEE770790121A940084370715D
:1072F0000248A0E7014808389DE700008C400000E4
:10730000F7B5054617460024002038702E46803613
:107310000BE01320604341198C3110220198FCF7D7
:10732000E2F8002806D0641CE4B2307AA042F0D81B
:107330000020FEBD01203870FAE70000F0B58BB0E8
:10734000044600200390049000250590002602903A
:10735000A07FC107204640300A90002902D0A07AC1
:10736000002808D02046203009904078274656371C
:10737000022806D009E00A9900200875D6480BB00B
:10738000F0BD09980079012814D0228A3521A06A1D
:1073900003F031FE0028F2D10121A06A01F02EFF96
:1073A0000028ECD13946E06A0BF070FCC1B2032929
:1073B0000BD00CE00121A06A01F020FF0028DED1F3
:1073C000A17FC90703D0032001E0012102910A9A9D
:1073D000002151750A9A11750106090E0ED0C1B22D
:1073E000A27A002A37D0099A5278012A48D0032974
:1073F00051D0A17F49084900A177C0E70A98807D54
:10740000002848D101222021A06A03F0F4FD0028C1
:10741000B5D12246623221465831206D01F0B4FCCC
:107420000106090E09D0C1B20329A8D1A07F01210C
:107430000843A077A848001FA1E70A9901204875D2
:107440000A99087509998870A07F40084000A077C4
:107450000120800393E70A9A00211175A17F012280
:107460001143A1778BE76D1CEDB29C4A0021A06A05
:1074700003F0DFFD002882D13946E06A0BF006FCFC
:10748000C1B2012901D1022DEDD3A17F49084900E4
:10749000A1770028B1D109980078002879D1A07F80
:1074A00001210843A0778C48001F68E7B04271D3E0
:1074B000A07F40084000A07700250020069006A885
:1074C00003A90190009186486A46415D137E03AA94
:1074D000E06A0AF0BFFF0999497801291BD100270A
:1074E00014E07F1CFFB27D4A0021A06A03F0A1FDD9
:1074F0000028A1D106A803A90190009178486A4606
:10750000415D137E03AAE06A0AF0A4FFC1B201291B
:1075100001D1022FE5D3C1B2032909D000288BD1B4
:107520006846007E4028CAD10298002833D04BE03C
:1075300009984078012808D0A07F01231843A0773C
:10754000A07AB04204D8002019E76348001F16E76C
:107550006846007E4107490F07290CD2401CC0B283
:1075600006900109400703AF400F7A5C401E83403C
:107570001A437A54D4E70009401C0007000E069015
:107580000009401EC0B203A90A5C80231A430A54B2
:10759000C6E787E082E0A07FC00715D13001801BDD
:1075A00000194030807D810903D14D49495D9329FF
:1075B00006D08009012807D14948405D952803D1AC
:1075C0006846007B882810D03001801B031908937F
:1075D000633343480793415D03AAE06A0AF095FFCD
:1075E00009994978012903D019E03B487F38C6E65C
:1075F00000270FE07F1CFFB2384A0021A06A03F089
:1076000018FD0028A0D13648079B415D03AAE06A17
:107610000AF07BFFC1B2012901D1022FEAD3010692
:10762000090E91D108996031C978490704D56D1CBC
:10763000EDB2032D00D240E700282FD13001801B8E
:107640000219089962325831E06A0AF031FF0028C5
:10765000CDD1761CF6B2A07FC00728D0A07AB04268
:1076600025D9E06A0AF033FF0028C0D1701E01015D
:10767000081A01270019603007713001801B0519B5
:1076800029465631E06A0AF031FF0106090E16D08C
:10769000C1B20329ABD1A07F3843A0770598401C25
:1076A000C0B20590A07A0599884200D3FEE60A98F8
:1076B000067509988670002E0BD000205FE64035D5
:1076C000A87D0028EAD1A07F01210843A0770020EF
:1076D00055E6014853E6000085400000B80B000065
:1076E000D47B2100F0B589B00446A07F25468007F1
:1076F000A035002802DAE07A00280DD0002003909F
:1077000000262746203720467978CE3008900D385D
:107710000790022905D007E000202875894809B0A4
:10772000F0BD3879012823D0628A3521A06A03F0A0
:1077300062FC0028F3D10221A06A01F05FFD00285D
:10774000EDD10899079801910090AB7D6A7D314693
:10775000606B0BF0D2FE0106090E08D07978012982
:107760002ED0C1B20129DAD0E17A002935D0D2E099
:107770000221A06A01F042FD0028D0D1606B0721F0
:10778000828BA06A03F037FC0028C8D1A17F89074B
:10779000E1D50320DFE70398401CC0B203906A4A9A
:1077A0000021A06A03F045FC0028B8D10899079889
:1077B00001910090AB7D6A7D3146606B0BF09DFEC0
:1077C000C1B2012902D103990229E4D3A17FFD228C
:1077D0001140A1770028A2D19DE000212975A17F49
:1077E00002221143A1779AE70021069105910491A5
:1077F0002975A17FFD221140A17788E0C1B201293E
:1078000005D000281DD0A07F02210843A07706984C
:10781000401CC0B2069001200699B040884248DD65
:10782000287D13214843021906981346401CC1B213
:10783000CE33C132606B0BF0B2FAC1B2122966D1FD
:107840006DE73879022811D1059800280ED0287DDF
:107850001321401E48430119BD31606B0BF090FAB3
:10786000606B0BF058FAC1B21229BCD0287D1321ED
:10787000484300190146C231BD300422FBF782FEA5
:10788000287D401CC0B228750599491CC9B20591D4
:10789000E17A884203D3287DB87000203FE7387929
:1078A0000128B4D1606B0BF036FAC1B212299AD01C
:1078B000ADE701200490A07F800739D5287D0028FE
:1078C00006D0E17A884207D3287DB870002026E7E9
:1078D000042E29D0761CF6B20598002805D0606BDE
:1078E0000BF019FAC1B21229AAD0287D13214843FE
:1078F00000190146CE31C13001910090AB7D6A7D07
:107900003146606B0BF016FAC1B2122998D0049977
:10791000002900D172E7042E00D865E7287DB870F1
:1079200000280DD00020FAE6287DB8700548F6E65C
:10793000287DB870002801D00020F0E60148EEE66E
:107940000048ECE685400000B80B0000F8B504469E
:1079500000256A4657212046FEF774FE00281CD1F8
:10796000A17F684600880A46264602408036002AE3
:1079700002D0227B002A11D0327A237B274620377F
:107980009A4216D304280DD00A21A06A01F036FCD1
:10799000002802D1307AB8700020F8BD0020307283
:1079A0002948F8BD0321A06A01F028FC0028F8D17D
:1079B000F0E78143A17700221146206B0AF0CBFB50
:1079C0000028EED1A28A3521A06A03F014FB00281A
:1079D000E7D16846008804280ED00A21A06A01F089
:1079E0000DFC0028DDD1684602880F21204600F0FA
:1079F000F5FC0028D5D11FE00321A06A01F0FEFBB1
:107A00000028CED1EFE71320684300198030017BB6
:107A100001290FD1407BFE280CD101220021206BCF
:107A20000AF099FB0028BCD1684602880F21204645
:107A300000F0D4FC6D1CEDB2307AA842E3D8307A65
:107A4000B8700020F8BD000085400000F0B59DB082
:107A5000044604201A90282110A8FBF7FBFD0025FE
:107A60000D950C950A950B95A07FDF210840A07716
:107A70002046C0301C90857726462036B570002001
:107A80000990628B3521A06A03F0B5FA00281DD158
:107A90000621A06A01F0B2FB002817D11C99887753
:107AA000B0700EA90FAA10AB0791059306920AA910
:107AB000009104900190029003900022012311464E
:107AC000606C0CF083F90746380001D01DB0F0BDA2
:107AD000F8B271282DD01A980025411C03900DAFE3
:107AE000C9B201951C980295049700951A91C27F1E
:107AF000E020015D2B46606C0CF048F90028E5D1D0
:107B00000CA90BA8029100970195039008A90B7E80
:107B10000A7F10A9A06A01F0F3FB0746F8B2122809
:107B200012D000200990A07FDF210840A077002517
:107B300077E00BAA0CA9A06A01F0FFFB0746F8B298
:107B40001228F4D13846C1E73846BFE70C9884467E
:107B5000405D00280FD001285FD002285FD0ED1CC7
:107B6000ADB201200990A07F20210843A077E07BDF
:107B7000002856D169E0604641198878002801D074
:107B80003548A3E702200022CB789B0705D50420C7
:107B900002224B791B0600D50620497882181B92D9
:107BA00091421DD91B9A8A1A3A2A17DC2918B078F3
:107BB0003C23584361440019C91CE230FBF7E2FC46
:107BC0000C983C22401941781B98081AB178C000E3
:107BD00051430919FF310131888309E01E4875E7D7
:107BE000B1783C22514309190020FF3101318883CB
:107BF0001C981C99807F401CC0B28877B178491CC2
:107C0000B170E17B884201D300205FE70C984019F6
:107C10004078ED1C401985B203E00F4856E7ED1C93
:107C2000ADB26846808D854290D30998002803D074
:107C30001A980F2800D84BE7F8B27128FBD01C988F
:107C4000807F002804D0002040E70348801C3DE7E7
:107C50000148801D3AE700007F400000F0B59BB06E
:107C600004460026012013900025002010900027D4
:107C70000B970C970D970E97202103A8FBF7EAFCB2
:107C800038462746C037B874A07FEF210840A07758
:107C9000228B3521A06A03F0AEF9002831D10421EE
:107CA000A06A01F0ABFA00282BD12046D530411E46
:107CB000009601910290F97C2420014316AB00222A
:107CC000206C0DF0E4FCC1B201291AD0224620320A
:107CD000C3B21A92002B0BD0032901D0022910D174
:107CE000A07F10210843A077A07B00280BD004E1DF
:107CF000B87C401CB8741A981A998078401C887017
:107D000000201BB0F0BD8848FBE700211191A17F46
:107D1000EF221140A177C100401800190146D5316A
:107D2000D430009602910190F97C0420014316ABF7
:107D30000022206C0DF0ABFCC1B2012923D0032935
:107D400012D0022910D00106090EDAD1B97C491CE3
:107D5000C9B2B9741A9A1A9B9278521C9A70A27B73
:107D6000914210D30020CCE7A17F10221143A177CC
:107D70006A0003A99446895A119B01229A40114333
:107D8000624603AB99521199491CC9B2119110294D
:107D900001D1002113911399002913D012A814A91D
:107DA00015AA009201910290B87CC10040180219F6
:107DB0001346D533D4320021206C0DF090FCC1B2B3
:107DC00012299ED013990029B6D1012013900020CA
:107DD0000F90680003A9095A002976D00BA8405DCE
:107DE00068E0690003AB8E465A5A012181400A427D
:107DF0004DD07107490F8C461591002934D0F208F7
:107E0000199216A91892895C63460822D31AFF2298
:107E1000DA401140189A16AB9954634602469A40CC
:107E20001143189A16AB99546146042905D9624644
:107E30000146D140199AD2185170361DF6B2A17F71
:107E400010221143A177690003AB5A5A01218140E6
:107E50008A4371465A520F280AD00BA94855401C34
:107E600048556D1CEDB241E0F20816A98854E4E7CC
:107E700000210BAA515572469952002D04D00BA92E
:107E800048556D1CEDB231E0012010902EE00F2816
:107E90000ED1002D12D0A17FEF221140A177361F05
:107EA000F6B20021724699520BAA51556D1EEDB2E1
:107EB000401CC0B2102894D318E006E001211091B4
:107EC000A17FEF221140A177F2E7002D22D0A17F00
:107ED000EF221140A177361FF6B2002103AA1152FA
:107EE0000BA841556D1EEDB201200F900F98002890
:107EF00000D06CE7A07FC00604D5B87CA17B884287
:107F000000D202E710980028F7D0B87C002808D0EB
:107F10000020F6E6A07FEF210840A0770120109016
:107F2000E4E70148001DECE68140000070B50D4615
:107F30000021044620346171A1700C4AA9005158F7
:107F400088470106090E04D0C1B2012900D10848B2
:107F500070BD0120A8406071A078012802D90448B2
:107F6000401D70BD0248001D70BD00008C7B2100CB
:107F70008540000070B504460D46A278A06A9107BE
:107F80000ED52321095D042903D0082908D1510702
:107F900006D4E28A352103F02EF8002810D105E03E
:107FA000A28A352103F027F8002809D1032D08D033
:107FB000042257212046FEF765FB002800D100204F
:107FC00070BD082257212046FEF75CFB0028F6D042
:107FD00070BD00007CB504460025A06A01F054F98C
:107FE000002860D1354A0021A06A03F022F8002859
:107FF00059D101202081204620304179CA07002133
:10800000002A2AD041710121A06A01F0F7F8002866
:1080100049D1204600F0D0F9002844D11AE0228A44
:108020003521A06A02F0E7FF00283CD121465631F5
:10803000E06A0AF02BFEC1B2012909D0122932D020
:10804000E06A0AF044FAC1B212292CD0002501E0FE
:108050006D1CEDB2032DE2D32AE041710221A06A2A
:1080600001F0CCF800281ED1204600F0A5F9002828
:1080700019D11BE0628A3521A06A02F0BCFF0028FA
:1080800011D121462046C131CE300091002301900C
:108090001A461946606B0BF030FAC1B2012903D0C1
:1080A0000025122902D17CBD6D1CEDB2032DE1D358
:1080B000C1B20129F7D100207CBD0000EC13000003
:1080C000F7B582B00446002500270020264620365A
:1080D000707101AA5F21A06A01F003F9002877D12D
:1080E0006946898800296AD10121A06A01F086F8D1
:1080F00000287ED1204600F05FF9002879D15EE0AB
:108100000399C90703D07179C90706D001270399DC
:10811000890751D5002F24D04EE0228A3521A06A4C
:1081200002F069FF002864D16846808801280AD0DF
:10813000012001902046FEF7B5FAC1B2872909D087
:10814000122956D0E3E70121A06A01F057F8002870
:108150004FD1EFE771790122114371716D1CEDB2BE
:10816000D5E771798A0726D4C80707D0608A2249E3
:10817000884203D94942401882B200E0628A352120
:10818000A06A02F038FF002833D10221A06A01F072
:1081900035F800282DD12046FEF7CAFAC1B287294A
:1081A00002D0122925D007E07179022211437171A2
:1081B0006D1CEDB200E00127002D00D10127002F3A
:1081C0009ED0012D05D008D904980570882008E0BC
:1081D0000FE004980570872003E0C1B2012900D1A7
:1081E0008420002805D0010A03D10121C0B28903EF
:1081F000401805B0F0BD00004C04000010B5044666
:1082000001225621A06A02F0F6FEC1B2232902D053
:108210000106090E0CD1A06A01F045F8C1B20A2985
:1082200007D0002804D0020A02D1012080030818D8
:1082300010BD014810BD0000824000000106090E7B
:108240000AD0C0B2032807D0052805D0022803D0E1
:10825000062801D00020704701207047FEB5044673
:108260002046FF3021300290057AA1794807400F5F
:1082700009070422002900DA10430006010C607986
:108280004607760F0E43000700D516432746FF37F3
:108290002737B81E01900097A06A3146019B029AC9
:1082A00000F0CAFF0106090E04D029466D1EEDB28A
:1082B0000029F0D1C1B2102903D0002800D1024812
:1082C000FEBD01480C38FEBD8F400000F8B50446E5
:1082D00000200090212021892646203601292AD11C
:1082E0007178022904D0032902D001290AD011E0B3
:1082F000A27821796B46204600F0D2F8C1B212294B
:1083000016D007E0A1786A462046FFF7D9FEC1B231
:1083100012290DD0E17F002905D0A178002902D0D3
:10832000C1B2842903D0C1B2872902D003E0214819
:10833000F8BD022121812189022929D17079A178F2
:1083400008401C4A653A002804D0411E084203D068
:108350001046F8BD1046F8BD002502E040086D1C2F
:10836000EDB20028FAD1002D08D06D1EE9B22046EA
:10837000FFF7DCFDC1B2892902D006E07F20F8BDFD
:10838000E9B200222046FEF7C9FDC1B21229F6D09B
:108390002189032905D17178012902D12046FFF7EF
:1083A00019FE0028EBD0010AE9D10121C0B28903EE
:1083B0004018F8BD8640000010B504460022562142
:1083C000A06A02F018FEC1B2232902D00106090EEC
:1083D00002D1A06A00F067FF10BD0000F0B589B0BF
:1083E00004460D4617462CA0006808900026079604
:1083F0000696059607A8009005AB2A4608A9206BAB
:1084000009F098FE0106090E42D12946254680351D
:1084100000292FD007AA0121206B09F065FE002852
:1084200036D122E00496039604A906AA009201918F
:10843000C1B203AB206B059A09F065FE002827D175
:1084400068468089002808D16846027C3B46204661
:10845000069900F0C3F800281AD16946888B401E9F
:108460000790287A217B88420ED26846808B0028AC
:10847000D8D109E06846808B3B46C2B220460599B8
:1084800000F0ACF8002803D1287A002802D00020A0
:1084900009B0F0BD0148FBE7FFFF00007F4000008E
:1084A000FFB583B0064684200025002137462037DB
:1084B0007971B97000247978022903D1002D01D097
:1084C000052C74D00121A140059A029111426AD075
:1084D0006A465F21B06A00F004FF00286DD168464B
:1084E000008801280CD1022C1DD0032C1BD0600069
:1084F0008019028A3521B06A02F07DFD00285CD126
:10850000A00034490190095CB06A00F077FE0028B1
:1085100053D13046FFF772FE00284ED168460088DE
:10852000002807D013E021463046FFF723FD00283E
:1085300043D1E5E7022C1FD0032C1DD06000801929
:10854000028A3521B06A02F056FD002835D1214952
:1085500001983031095830468847C1B2872912D076
:1085600012292AD00121049AA14011421BD0002DCA
:1085700019D006990D701AE021463046FFF7FAFC33
:1085800000281AD1E3E77979029A114379716D1CB9
:10859000EDB24907E6D505990907E3D506990D70AF
:1085A000641CE4B2DEE7641CE4B2062C83D3012D24
:1085B00005D009D906980570074807B0F0BD0698A0
:1085C00005700548401EF8E7C1B20129F5D10248FF
:1085D000001FF2E7747B210088400000FFB583B0E4
:1085E00005461F46002602AA28460499FEF788FE83
:1085F000002831D16846007A2C468034002827D1E3
:1086000001AA0021286B09F06FFD002824D16846DB
:10861000808800280CD00598102809D9207A1321C9
:1086200048430499401980300A7C0277497C41779D
:10863000207A1321484340198C3010220499FAF70C
:10864000A1FF207A13214843401980308777012603
:10865000207A80192072002007B0F0BDF8B50446DA
:108660000F46254620356878032806D000225E2173
:10867000A06A02F0C0FC00280ED100222021A06ACE
:1086800002F0B9FC002807D18126F601002F04D0A2
:108690002E49012F44D00846F8BD2C4FE07F6337A8
:1086A00000280DD0208901280AD1A06A00F054FECC
:1086B0000106090E04D0C1B20129EDD13846F8BD3A
:1086C000E07800281BD02089012818D12046FEF729
:1086D00053FDC1B2842906D08C29F0D08229EED076
:1086E000E0843046F8BDA06A00F0CEFD0028F9D144
:1086F000A28B0021A06A02F09CFC0028F2D1A07895
:10870000002808D02046FFF7E1FD010A4029E9D002
:10871000E0843046F8BD00206871A8703846F8BD86
:108720006079002802D1A07900280DD0A06A00F05D
:10873000ABFD0028F3D12046FFF790FD010A402948
:10874000EDD0E0843046F8BD0846F8BD2140000079
:10875000FEB505461446002000902F462E46F34AEB
:108760006037A036E0B2462973D021DC302971D0C1
:108770000EDC0B00FBF73CFE157274767D84868858
:108780009F9F9F9F9F9F9F9F9FF2F1F0EFEE9F0003
:1087900031390B00FBF72CFE15EEEDECEBEAE98F1F
:1087A0008F8F8F8F8F8F8F8FFAE7E6E5E4E38F004F
:1087B0002B4620330193802978D020DC542976D0B1
:1087C0000EDC512974D006DC472972D0482971D0BB
:1087D000492970D110E152296ED05329F9D157E1BE
:1087E0002B46C033602968D004DC55296FD0572947
:1087F000EFD134E170296BD07129EAD182E182395D
:108800000B00FBF7F5FD0F760F115843581D090BB0
:108810000D1B205858EF5800A87185E1E87083E1DE
:10882000687181E1A8777FE1012805D0022803D093
:10883000032801D01046FEBD288175E1A87073E1C0
:108840000199087070E1012C05D0022C03D010466C
:10885000FEBDBCE0DFE00199087165E12C8263E1B7
:108860006C8261E1B248844201D21046F0E7AC82EA
:108870005AE1B048844201D21046E9E7EC8253E164
:108880002C8351E16C834FE1AC834DE1610901D050
:108890001046DDE7E10702D0A978C9070ED0A1078D
:1088A0000ED5A97889070BD41046D1E763E0F1E033
:1088B000E2E092E09AE036E1E4E000E11046C7E74A
:1088C000210706D5A978090703D41046C0E7E7E0D9
:1088D00010E1610704D5A978490701D41046B7E72C
:1088E000E10604D5A978C90601D41046B0E728717D
:1088F0001AE1022C05D0012C03D0032C01D0104624
:10890000A6E70199487022465A21A86A02F073FB33
:1089100000289DD122460621A86B0AF014FE0028EB
:1089200096D122460121686B0AF01BFA00288FD1EC
:1089300022460121E86A09F0F7FD002888D1224685
:108940000121E86B0AF074FF00900098002813D012
:1089500000987DE7C5E0A9E084E053E00DE030E059
:1089600028E021E01EE017E010E072E06BE068E034
:1089700061E05AE051E0E877D6E0A978C90701D074
:10898000012801D9104663E7A872CDE00C2C01D96B
:1089900010465DE73877C7E00E2C01D9104657E73F
:1089A0007877C1E0B877BFE0032C01D910464FE7D4
:1089B000F877B9E0032C01D9104649E780352870D3
:1089C000B2E00E2C01D9104642E73872ACE0032C1D
:1089D00001D910463CE77872A6E0002C03D00120B4
:1089E000B872A1E097E00020B8729DE0FF2C01D999
:1089F00010462DE7F87297E0FF2C01D9104627E7C3
:108A0000387491E0A978890701D5012801D9104669
:108A10001EE7E87288E0707586E0002C02D0012025
:108A2000B07581E00020B0757EE00C2C01D91046B5
:108A30000EE7307678E00E2C01D9104608E7707604
:108A400072E0B07670E0032C01D9104600E7F076B2
:108A50006AE0032C01D91046FAE6307764E0019908
:108A6000C87061E0A9780907890F01D0012801D9F0
:108A70001046EDE6287357E00E2C01D91046E7E6C4
:108A8000307051E0032C01D91046E1E670704BE0E4
:108A9000B07049E0FF2C01D91046D9E6F07043E0F0
:108AA000FF2C01D91046D3E630723DE0A978C90603
:108AB00001D5012801D91046CAE6A87334E00D2C6F
:108AC00003D00C2C01D01046C2E60D2C04D0D87C6B
:108AD000FD210840D87427E0D87C02210843D874CF
